{
  "contractName": "BuildCollective",
  "abi": [
    {
      "anonymous": false,
      "inputs": [
        {
          "indexed": true,
          "internalType": "uint256",
          "name": "projectIndex",
          "type": "uint256"
        },
        {
          "components": [
            {
              "internalType": "string",
              "name": "projectName",
              "type": "string"
            },
            {
              "internalType": "address",
              "name": "creatorUser",
              "type": "address"
            },
            {
              "internalType": "uint256",
              "name": "balance",
              "type": "uint256"
            },
            {
              "internalType": "bool",
              "name": "registered",
              "type": "bool"
            },
            {
              "internalType": "address[]",
              "name": "collaborators",
              "type": "address[]"
            }
          ],
          "indexed": true,
          "internalType": "struct BuildCollective.Project",
          "name": "project",
          "type": "tuple"
        }
      ],
      "name": "ProjectCreated",
      "type": "event"
    },
    {
      "anonymous": false,
      "inputs": [
        {
          "indexed": true,
          "internalType": "address",
          "name": "userAddress",
          "type": "address"
        },
        {
          "components": [
            {
              "internalType": "string",
              "name": "username",
              "type": "string"
            },
            {
              "internalType": "uint256",
              "name": "balance",
              "type": "uint256"
            },
            {
              "internalType": "bool",
              "name": "registered",
              "type": "bool"
            }
          ],
          "indexed": true,
          "internalType": "struct BuildCollective.User",
          "name": "user",
          "type": "tuple"
        }
      ],
      "name": "UserSignedUp",
      "type": "event"
    },
    {
      "constant": true,
      "inputs": [],
      "name": "owner",
      "outputs": [
        {
          "internalType": "address",
          "name": "",
          "type": "address"
        }
      ],
      "payable": false,
      "stateMutability": "view",
      "type": "function"
    },
    {
      "constant": true,
      "inputs": [
        {
          "internalType": "address",
          "name": "userAddress",
          "type": "address"
        }
      ],
      "name": "user",
      "outputs": [
        {
          "components": [
            {
              "internalType": "string",
              "name": "username",
              "type": "string"
            },
            {
              "internalType": "uint256",
              "name": "balance",
              "type": "uint256"
            },
            {
              "internalType": "bool",
              "name": "registered",
              "type": "bool"
            }
          ],
          "internalType": "struct BuildCollective.User",
          "name": "",
          "type": "tuple"
        }
      ],
      "payable": false,
      "stateMutability": "view",
      "type": "function"
    },
    {
      "constant": false,
      "inputs": [
        {
          "internalType": "string",
          "name": "username",
          "type": "string"
        }
      ],
      "name": "signUp",
      "outputs": [
        {
          "components": [
            {
              "internalType": "string",
              "name": "username",
              "type": "string"
            },
            {
              "internalType": "uint256",
              "name": "balance",
              "type": "uint256"
            },
            {
              "internalType": "bool",
              "name": "registered",
              "type": "bool"
            }
          ],
          "internalType": "struct BuildCollective.User",
          "name": "",
          "type": "tuple"
        }
      ],
      "payable": false,
      "stateMutability": "nonpayable",
      "type": "function"
    },
    {
      "constant": false,
      "inputs": [
        {
          "internalType": "uint256",
          "name": "amount",
          "type": "uint256"
        }
      ],
      "name": "addBalance",
      "outputs": [
        {
          "internalType": "bool",
          "name": "",
          "type": "bool"
        }
      ],
      "payable": false,
      "stateMutability": "nonpayable",
      "type": "function"
    },
    {
      "constant": true,
      "inputs": [],
      "name": "projectsLength",
      "outputs": [
        {
          "internalType": "uint256",
          "name": "",
          "type": "uint256"
        }
      ],
      "payable": false,
      "stateMutability": "view",
      "type": "function"
    },
    {
      "constant": true,
      "inputs": [
        {
          "internalType": "uint256",
          "name": "projectIndex",
          "type": "uint256"
        }
      ],
      "name": "project",
      "outputs": [
        {
          "components": [
            {
              "internalType": "string",
              "name": "projectName",
              "type": "string"
            },
            {
              "internalType": "address",
              "name": "creatorUser",
              "type": "address"
            },
            {
              "internalType": "uint256",
              "name": "balance",
              "type": "uint256"
            },
            {
              "internalType": "bool",
              "name": "registered",
              "type": "bool"
            },
            {
              "internalType": "address[]",
              "name": "collaborators",
              "type": "address[]"
            }
          ],
          "internalType": "struct BuildCollective.Project",
          "name": "",
          "type": "tuple"
        }
      ],
      "payable": false,
      "stateMutability": "view",
      "type": "function"
    },
    {
      "constant": false,
      "inputs": [
        {
          "internalType": "string",
          "name": "projectName",
          "type": "string"
        }
      ],
      "name": "createProject",
      "outputs": [
        {
          "components": [
            {
              "internalType": "string",
              "name": "projectName",
              "type": "string"
            },
            {
              "internalType": "address",
              "name": "creatorUser",
              "type": "address"
            },
            {
              "internalType": "uint256",
              "name": "balance",
              "type": "uint256"
            },
            {
              "internalType": "bool",
              "name": "registered",
              "type": "bool"
            },
            {
              "internalType": "address[]",
              "name": "collaborators",
              "type": "address[]"
            }
          ],
          "internalType": "struct BuildCollective.Project",
          "name": "",
          "type": "tuple"
        }
      ],
      "payable": false,
      "stateMutability": "nonpayable",
      "type": "function"
    },
    {
      "constant": false,
      "inputs": [
        {
          "internalType": "uint256",
          "name": "amount",
          "type": "uint256"
        },
        {
          "internalType": "uint256",
          "name": "projectIndex",
          "type": "uint256"
        },
        {
          "internalType": "address",
          "name": "addr",
          "type": "address"
        }
      ],
      "name": "addBalanceToProject",
      "outputs": [
        {
          "internalType": "bool",
          "name": "",
          "type": "bool"
        }
      ],
      "payable": false,
      "stateMutability": "nonpayable",
      "type": "function"
    }
  ],
  "bytecode": "0x6080604052336000806101000a81548173ffffffffffffffffffffffffffffffffffffffff021916908373ffffffffffffffffffffffffffffffffffffffff16021790555034801561005057600080fd5b506115ec806100606000396000f3fe608060405234801561001057600080fd5b50600436106100885760003560e01c80638da5cb5b1161005b5780638da5cb5b1461013b578063adcfb4fc14610159578063d779b98514610189578063d91921ed146101b957610088565b806311d5aaa71461008d57806315ee4df1146100bd5780636c665ca0146100ed57806381e7e20e1461010b575b600080fd5b6100a760048036036100a29190810190610dad565b6101e9565b6040516100b491906112d6565b60405180910390f35b6100d760048036036100d29190810190610d6c565b6103c1565b6040516100e491906112d6565b60405180910390f35b6100f56105e8565b604051610102919061131a565b60405180910390f35b61012560048036036101209190810190610d43565b6105f2565b60405161013291906112f8565b60405180910390f35b610143610712565b60405161015091906112a0565b60405180910390f35b610173600480360361016e9190810190610d6c565b610737565b60405161018091906112f8565b60405180910390f35b6101a3600480360361019e9190810190610dd6565b610891565b6040516101b091906112bb565b60405180910390f35b6101d360048036036101ce9190810190610dad565b610982565b6040516101e091906112bb565b60405180910390f35b6101f1610ae9565b600260008381526020019081526020016000206040518060a0016040529081600082018054600181600116156101000203166002900480601f0160208091040260200160405190810160405280929190818152602001828054600181600116156101000203166002900480156102a85780601f1061027d576101008083540402835291602001916102a8565b820191906000526020600020905b81548152906001019060200180831161028b57829003601f168201915b505050505081526020016001820160009054906101000a900473ffffffffffffffffffffffffffffffffffffffff1673ffffffffffffffffffffffffffffffffffffffff1673ffffffffffffffffffffffffffffffffffffffff168152602001600282015481526020016003820160009054906101000a900460ff16151515158152602001600482018054806020026020016040519081016040528092919081815260200182805480156103b157602002820191906000526020600020905b8160009054906101000a900473ffffffffffffffffffffffffffffffffffffffff1673ffffffffffffffffffffffffffffffffffffffff1681526020019060010190808311610367575b5050505050815250509050919050565b6103c9610ae9565b60008251116103d757600080fd5b6040518060a001604052808381526020013373ffffffffffffffffffffffffffffffffffffffff1681526020016000815260200160011515815260200160056040519080825280602002602001820160405280156104445781602001602082028038833980820191505090505b508152506002600060035481526020019081526020016000206000820151816000019080519060200190610479929190610b30565b5060208201518160010160006101000a81548173ffffffffffffffffffffffffffffffffffffffff021916908373ffffffffffffffffffffffffffffffffffffffff1602179055506040820151816002015560608201518160030160006101000a81548160ff0219169083151502179055506080820151816004019080519060200190610507929190610bb0565b509050503360026000600354815260200190815260200160002060040160008154811061053057fe5b9060005260206000200160006101000a81548173ffffffffffffffffffffffffffffffffffffffff021916908373ffffffffffffffffffffffffffffffffffffffff16021790555060026000600354815260200190815260200160002060405161059a9190611272565b60405180910390206003547ffa6fe5ca59b8f74037d079c2173b9ff1e3fd6a987b01f1832b7b4c124c1ca8f260405160405180910390a3600360008154809291906001019190505550919050565b6000600354905090565b6105fa610c3a565b600160008373ffffffffffffffffffffffffffffffffffffffff1673ffffffffffffffffffffffffffffffffffffffff168152602001908152602001600020604051806060016040529081600082018054600181600116156101000203166002900480601f0160208091040260200160405190810160405280929190818152602001828054600181600116156101000203166002900480156106dd5780601f106106b2576101008083540402835291602001916106dd565b820191906000526020600020905b8154815290600101906020018083116106c057829003601f168201915b50505050508152602001600182015481526020016002820160009054906101000a900460ff1615151515815250509050919050565b6000809054906101000a900473ffffffffffffffffffffffffffffffffffffffff1681565b61073f610c3a565b600082511161074d57600080fd5b60405180606001604052808381526020016000815260200160011515815250600160003373ffffffffffffffffffffffffffffffffffffffff1673ffffffffffffffffffffffffffffffffffffffff16815260200190815260200160002060008201518160000190805190602001906107c7929190610b30565b506020820151816001015560408201518160020160006101000a81548160ff021916908315150217905550905050600160003373ffffffffffffffffffffffffffffffffffffffff1673ffffffffffffffffffffffffffffffffffffffff1681526020019081526020016000206040516108419190611289565b60405180910390203373ffffffffffffffffffffffffffffffffffffffff167fc24de5261f8eff14607134de76bea692f6b10ab7b8b21d627fa4cd6347365b7460405160405180910390a3919050565b600083600160008473ffffffffffffffffffffffffffffffffffffffff1673ffffffffffffffffffffffffffffffffffffffff1681526020019081526020016000206001015410156108e257600080fd5b60035483106108f057600080fd5b6108fa8383610a36565b61090357600080fd5b83600260008581526020019081526020016000206002016000828254019250508190555083600160008473ffffffffffffffffffffffffffffffffffffffff1673ffffffffffffffffffffffffffffffffffffffff16815260200190815260200160002060010160008282540392505081905550600190509392505050565b6000600160003373ffffffffffffffffffffffffffffffffffffffff1673ffffffffffffffffffffffffffffffffffffffff16815260200190815260200160002060020160009054906101000a900460ff166109dd57600080fd5b81600160003373ffffffffffffffffffffffffffffffffffffffff1673ffffffffffffffffffffffffffffffffffffffff1681526020019081526020016000206001016000828254019250508190555060019050919050565b600080600090505b6005811015610add578273ffffffffffffffffffffffffffffffffffffffff16600260008681526020019081526020016000206004018281548110610a7f57fe5b9060005260206000200160009054906101000a900473ffffffffffffffffffffffffffffffffffffffff1673ffffffffffffffffffffffffffffffffffffffff161415610ad0576001915050610ae3565b8080600101915050610a3e565b50600090505b92915050565b6040518060a0016040528060608152602001600073ffffffffffffffffffffffffffffffffffffffff16815260200160008152602001600015158152602001606081525090565b828054600181600116156101000203166002900490600052602060002090601f016020900481019282601f10610b7157805160ff1916838001178555610b9f565b82800160010185558215610b9f579182015b82811115610b9e578251825591602001919060010190610b83565b5b509050610bac9190610c5d565b5090565b828054828255906000526020600020908101928215610c29579160200282015b82811115610c285782518260006101000a81548173ffffffffffffffffffffffffffffffffffffffff021916908373ffffffffffffffffffffffffffffffffffffffff16021790555091602001919060010190610bd0565b5b509050610c369190610c82565b5090565b604051806060016040528060608152602001600081526020016000151581525090565b610c7f91905b80821115610c7b576000816000905550600101610c63565b5090565b90565b610cc291905b80821115610cbe57600081816101000a81549073ffffffffffffffffffffffffffffffffffffffff021916905550600101610c88565b5090565b90565b600081359050610cd48161157b565b92915050565b600082601f830112610ceb57600080fd5b8135610cfe610cf982611362565b611335565b91508082526020830160208301858383011115610d1a57600080fd5b610d258382846114ba565b50505092915050565b600081359050610d3d81611592565b92915050565b600060208284031215610d5557600080fd5b6000610d6384828501610cc5565b91505092915050565b600060208284031215610d7e57600080fd5b600082013567ffffffffffffffff811115610d9857600080fd5b610da484828501610cda565b91505092915050565b600060208284031215610dbf57600080fd5b6000610dcd84828501610d2e565b91505092915050565b600080600060608486031215610deb57600080fd5b6000610df986828701610d2e565b9350506020610e0a86828701610d2e565b9250506040610e1b86828701610cc5565b9150509250925092565b6000610e318383610ead565b60208301905092915050565b6000610e498383610ecb565b60208301905092915050565b6000610e618383610f38565b905092915050565b6000610e758383610fbb565b60208301905092915050565b6000610e8d8383611003565b905092915050565b6000610ea18383611263565b60208301905092915050565b610eb681611472565b82525050565b610ec581611472565b82525050565b610ed481611472565b82525050565b6000610ee5826113c8565b610eef8185611403565b9350610efa8361138e565b8060005b83811015610f2b578151610f128882610e25565b9750610f1d836113e9565b925050600181019050610efe565b5085935050505092915050565b6000610f43826113d3565b610f4d8185611414565b9350610f588361139e565b8060005b83811015610f9057610f6d8261154a565b610f778882610e3d565b9750610f82836113f6565b925050600181019050610f5c565b5085935050505092915050565b610fa681611484565b82525050565b610fb581611484565b82525050565b610fc481611484565b82525050565b6000610fd5826113de565b610fdf818561141f565b9350610fef8185602086016114c9565b610ff88161155d565b840191505092915050565b60008154600181166000811461102057600181146110465761108a565b607f60028304166110318187611430565b955060ff19831686526020860193505061108a565b600282046110548187611430565b955061105f856113b3565b60005b8281101561108157815481890152600182019150602081019050611062565b80880195505050505b505092915050565b600060a08301600083015184820360008601526110af8282610fca565b91505060208301516110c46020860182610ead565b5060408301516110d76040860182611245565b5060608301516110ea6060860182610f9d565b50608083015184820360808601526111028282610eda565b9150508091505092915050565b600080830160008084016111238682610e81565b95505060018401549050611136816114fc565b6111408682610e3d565b9550506002840154905061115381611530565b61115d8682610e95565b9550506003840154905061117081611516565b61117a8682610e69565b9550506004840161118b8682610e55565b955050849250505092915050565b600060608301600083015184820360008601526111b68282610fca565b91505060208301516111cb6020860182611245565b5060408301516111de6040860182610f9d565b508091505092915050565b600080830160008084016111fd8682610e81565b9550506001840154905061121081611530565b61121a8682610e95565b9550506002840154905061122d81611516565b6112378682610e69565b955050849250505092915050565b61124e816114b0565b82525050565b61125d816114b0565b82525050565b61126c816114b0565b82525050565b600061127e828461110f565b915081905092915050565b600061129582846111e9565b915081905092915050565b60006020820190506112b56000830184610ebc565b92915050565b60006020820190506112d06000830184610fac565b92915050565b600060208201905081810360008301526112f08184611092565b905092915050565b600060208201905081810360008301526113128184611199565b905092915050565b600060208201905061132f6000830184611254565b92915050565b6000604051905081810181811067ffffffffffffffff8211171561135857600080fd5b8060405250919050565b600067ffffffffffffffff82111561137957600080fd5b601f19601f8301169050602081019050919050565b6000819050602082019050919050565b60008190508160005260206000209050919050565b60008190508160005260206000209050919050565b600081519050919050565b600081549050919050565b600081519050919050565b6000602082019050919050565b6000600182019050919050565b600082825260208201905092915050565b600081905092915050565b600082825260208201905092915050565b600081905092915050565b600073ffffffffffffffffffffffffffffffffffffffff82169050919050565b600060ff82169050919050565b6000819050919050565b600061147d82611490565b9050919050565b60008115159050919050565b600073ffffffffffffffffffffffffffffffffffffffff82169050919050565b6000819050919050565b82818337600083830152505050565b60005b838110156114e75780820151818401526020810190506114cc565b838111156114f6576000848401525b50505050565b600061150f61150a8361156e565b61143b565b9050919050565b60006115296115248361156e565b61145b565b9050919050565b600061154361153e8361156e565b611468565b9050919050565b600061155682546114fc565b9050919050565b6000601f19601f8301169050919050565b60008160001c9050919050565b61158481611472565b811461158f57600080fd5b50565b61159b816114b0565b81146115a657600080fd5b5056fea365627a7a723158207784893f92d8e969fff72b5dff260b8cedd59a59e8e7328127f57a64a2e568aa6c6578706572696d656e74616cf564736f6c63430005100040",
  "source": "pragma solidity >=0.4.22 <0.9.0;\npragma experimental ABIEncoderV2;\n\nimport \"./Ownable.sol\";\n\ncontract BuildCollective is Ownable {\n  struct User {\n    string username;\n    uint256 balance;\n    bool registered;\n  }\n\n  struct Project {\n    string projectName;\n    address creatorUser;\n    uint256 balance;\n    bool registered;\n    address[] collaborators;\n  }\n\n  mapping(address => User) private users;\n  mapping(uint => Project) private projects;\n  uint private projectCount;\n\n  event UserSignedUp(address indexed userAddress, User indexed user);\n  event ProjectCreated(uint indexed projectIndex, Project indexed project);\n\n  function user(address userAddress) public view returns (User memory) {\n    return users[userAddress];\n  }\n\n  function signUp(string memory username) public returns (User memory) {\n    require(bytes(username).length > 0);\n    users[msg.sender] = User(username, 0, true);\n    emit UserSignedUp(msg.sender, users[msg.sender]);\n  }\n\n  function addBalance(uint256 amount) public returns (bool) {\n    require(users[msg.sender].registered);\n    users[msg.sender].balance += amount;\n    return true;\n  }\n\n  function projectsLength() public view returns (uint) {\n    return projectCount;\n  }\n\n  function project(uint projectIndex) public view returns (Project memory) {\n    return projects[projectIndex];\n  }\n\n  function createProject(string memory projectName) public returns (Project memory) {\n    require(bytes(projectName).length > 0);\n    projects[projectCount] = Project(projectName, msg.sender, 0, true, new address[](5));\n    projects[projectCount].collaborators[0] = msg.sender;\n    emit ProjectCreated(projectCount, projects[projectCount]);\n    projectCount++;\n  }\n\n  function addBalanceToProject(uint256 amount, uint projectIndex, address addr) public returns (bool) {\n    require(users[addr].balance >= amount);\n    require(projectIndex < projectCount);\n    require(isCollaborator(projectIndex, addr));\n    projects[projectIndex].balance += amount;\n    users[addr].balance -= amount;\n    return true;\n  }\n\n  function isCollaborator(uint projectIndex, address addr) private returns (bool){\n    for(uint i = 0; i < 5; i++){\n      if (projects[projectIndex].collaborators[i] == addr){\n        return true;\n      }\n    }\n    return false;\n  }\n\n}\n",
  "sourcePath": "/home/tr/documents/git/daar_build-collective/build-collective-master/contracts/BuildCollective.sol",
  "compiler": {
    "name": "solc",
    "version": "0.5.16+commit.9c3226ce.Emscripten.clang"
  },
  "schemaVersion": "3.4.3",
  "updatedAt": "2021-11-27T15:15:12.135Z",
  "networkType": "ethereum",
  "devdoc": {
    "methods": {}
  },
  "userdoc": {
    "methods": {}
  }
}