{
  "contractName": "BuildCollective",
  "abi": [
    {
      "anonymous": false,
      "inputs": [
        {
          "indexed": true,
          "internalType": "uint256",
          "name": "entrepriseIndex",
          "type": "uint256"
        },
        {
          "components": [
            {
              "internalType": "string",
              "name": "name",
              "type": "string"
            },
            {
              "internalType": "address",
              "name": "owner",
              "type": "address"
            },
            {
              "internalType": "uint256",
              "name": "balance",
              "type": "uint256"
            },
            {
              "internalType": "bool",
              "name": "registered",
              "type": "bool"
            },
            {
              "internalType": "address[]",
              "name": "members",
              "type": "address[]"
            },
            {
              "internalType": "uint256",
              "name": "membersNumber",
              "type": "uint256"
            }
          ],
          "indexed": true,
          "internalType": "struct BuildCollective.Entreprise",
          "name": "entreprise",
          "type": "tuple"
        }
      ],
      "name": "EntrepriseCreated",
      "type": "event"
    },
    {
      "anonymous": false,
      "inputs": [
        {
          "indexed": true,
          "internalType": "uint256",
          "name": "projectIndex",
          "type": "uint256"
        },
        {
          "components": [
            {
              "internalType": "string",
              "name": "projectName",
              "type": "string"
            },
            {
              "internalType": "uint256",
              "name": "creatorType",
              "type": "uint256"
            },
            {
              "internalType": "address",
              "name": "creatorUser",
              "type": "address"
            },
            {
              "internalType": "string",
              "name": "creatorEntreprise",
              "type": "string"
            },
            {
              "internalType": "uint256",
              "name": "balance",
              "type": "uint256"
            },
            {
              "internalType": "bool",
              "name": "registered",
              "type": "bool"
            },
            {
              "internalType": "address[]",
              "name": "collaborators",
              "type": "address[]"
            },
            {
              "internalType": "uint256",
              "name": "collaboratorsNumber",
              "type": "uint256"
            },
            {
              "internalType": "string[]",
              "name": "collaboratorsEntreprise",
              "type": "string[]"
            },
            {
              "internalType": "uint256",
              "name": "collaboratorsEntrepriseNumber",
              "type": "uint256"
            }
          ],
          "indexed": true,
          "internalType": "struct BuildCollective.Project",
          "name": "project",
          "type": "tuple"
        }
      ],
      "name": "ProjectCreated",
      "type": "event"
    },
    {
      "anonymous": false,
      "inputs": [
        {
          "indexed": true,
          "internalType": "address",
          "name": "userAddress",
          "type": "address"
        },
        {
          "components": [
            {
              "internalType": "string",
              "name": "username",
              "type": "string"
            },
            {
              "internalType": "uint256",
              "name": "balance",
              "type": "uint256"
            },
            {
              "internalType": "bool",
              "name": "registered",
              "type": "bool"
            }
          ],
          "indexed": true,
          "internalType": "struct BuildCollective.User",
          "name": "user",
          "type": "tuple"
        }
      ],
      "name": "UserSignedUp",
      "type": "event"
    },
    {
      "constant": true,
      "inputs": [],
      "name": "owner",
      "outputs": [
        {
          "internalType": "address",
          "name": "",
          "type": "address"
        }
      ],
      "payable": false,
      "stateMutability": "view",
      "type": "function"
    },
    {
      "constant": true,
      "inputs": [
        {
          "internalType": "address",
          "name": "userAddress",
          "type": "address"
        }
      ],
      "name": "user",
      "outputs": [
        {
          "components": [
            {
              "internalType": "string",
              "name": "username",
              "type": "string"
            },
            {
              "internalType": "uint256",
              "name": "balance",
              "type": "uint256"
            },
            {
              "internalType": "bool",
              "name": "registered",
              "type": "bool"
            }
          ],
          "internalType": "struct BuildCollective.User",
          "name": "",
          "type": "tuple"
        }
      ],
      "payable": false,
      "stateMutability": "view",
      "type": "function"
    },
    {
      "constant": false,
      "inputs": [
        {
          "internalType": "string",
          "name": "username",
          "type": "string"
        }
      ],
      "name": "signUp",
      "outputs": [
        {
          "components": [
            {
              "internalType": "string",
              "name": "username",
              "type": "string"
            },
            {
              "internalType": "uint256",
              "name": "balance",
              "type": "uint256"
            },
            {
              "internalType": "bool",
              "name": "registered",
              "type": "bool"
            }
          ],
          "internalType": "struct BuildCollective.User",
          "name": "",
          "type": "tuple"
        }
      ],
      "payable": false,
      "stateMutability": "nonpayable",
      "type": "function"
    },
    {
      "constant": false,
      "inputs": [
        {
          "internalType": "uint256",
          "name": "amount",
          "type": "uint256"
        }
      ],
      "name": "addBalance",
      "outputs": [
        {
          "internalType": "bool",
          "name": "",
          "type": "bool"
        }
      ],
      "payable": false,
      "stateMutability": "nonpayable",
      "type": "function"
    },
    {
      "constant": true,
      "inputs": [],
      "name": "projectsLength",
      "outputs": [
        {
          "internalType": "uint256",
          "name": "",
          "type": "uint256"
        }
      ],
      "payable": false,
      "stateMutability": "view",
      "type": "function"
    },
    {
      "constant": true,
      "inputs": [
        {
          "internalType": "uint256",
          "name": "projectIndex",
          "type": "uint256"
        }
      ],
      "name": "project",
      "outputs": [
        {
          "components": [
            {
              "internalType": "string",
              "name": "projectName",
              "type": "string"
            },
            {
              "internalType": "uint256",
              "name": "creatorType",
              "type": "uint256"
            },
            {
              "internalType": "address",
              "name": "creatorUser",
              "type": "address"
            },
            {
              "internalType": "string",
              "name": "creatorEntreprise",
              "type": "string"
            },
            {
              "internalType": "uint256",
              "name": "balance",
              "type": "uint256"
            },
            {
              "internalType": "bool",
              "name": "registered",
              "type": "bool"
            },
            {
              "internalType": "address[]",
              "name": "collaborators",
              "type": "address[]"
            },
            {
              "internalType": "uint256",
              "name": "collaboratorsNumber",
              "type": "uint256"
            },
            {
              "internalType": "string[]",
              "name": "collaboratorsEntreprise",
              "type": "string[]"
            },
            {
              "internalType": "uint256",
              "name": "collaboratorsEntrepriseNumber",
              "type": "uint256"
            }
          ],
          "internalType": "struct BuildCollective.Project",
          "name": "",
          "type": "tuple"
        }
      ],
      "payable": false,
      "stateMutability": "view",
      "type": "function"
    },
    {
      "constant": false,
      "inputs": [
        {
          "internalType": "string",
          "name": "projectName",
          "type": "string"
        }
      ],
      "name": "createProject",
      "outputs": [
        {
          "components": [
            {
              "internalType": "string",
              "name": "projectName",
              "type": "string"
            },
            {
              "internalType": "uint256",
              "name": "creatorType",
              "type": "uint256"
            },
            {
              "internalType": "address",
              "name": "creatorUser",
              "type": "address"
            },
            {
              "internalType": "string",
              "name": "creatorEntreprise",
              "type": "string"
            },
            {
              "internalType": "uint256",
              "name": "balance",
              "type": "uint256"
            },
            {
              "internalType": "bool",
              "name": "registered",
              "type": "bool"
            },
            {
              "internalType": "address[]",
              "name": "collaborators",
              "type": "address[]"
            },
            {
              "internalType": "uint256",
              "name": "collaboratorsNumber",
              "type": "uint256"
            },
            {
              "internalType": "string[]",
              "name": "collaboratorsEntreprise",
              "type": "string[]"
            },
            {
              "internalType": "uint256",
              "name": "collaboratorsEntrepriseNumber",
              "type": "uint256"
            }
          ],
          "internalType": "struct BuildCollective.Project",
          "name": "",
          "type": "tuple"
        }
      ],
      "payable": false,
      "stateMutability": "nonpayable",
      "type": "function"
    },
    {
      "constant": false,
      "inputs": [
        {
          "internalType": "uint256",
          "name": "amount",
          "type": "uint256"
        },
        {
          "internalType": "string",
          "name": "projectName",
          "type": "string"
        }
      ],
      "name": "addBalanceToProject",
      "outputs": [
        {
          "internalType": "bool",
          "name": "",
          "type": "bool"
        }
      ],
      "payable": false,
      "stateMutability": "nonpayable",
      "type": "function"
    },
    {
      "constant": false,
      "inputs": [
        {
          "internalType": "uint256",
          "name": "amount",
          "type": "uint256"
        },
        {
          "internalType": "string",
          "name": "projectName",
          "type": "string"
        },
        {
          "internalType": "address",
          "name": "addr",
          "type": "address"
        }
      ],
      "name": "allocateProjectBudget",
      "outputs": [
        {
          "internalType": "bool",
          "name": "",
          "type": "bool"
        }
      ],
      "payable": false,
      "stateMutability": "nonpayable",
      "type": "function"
    },
    {
      "constant": true,
      "inputs": [],
      "name": "entreprisesLength",
      "outputs": [
        {
          "internalType": "uint256",
          "name": "",
          "type": "uint256"
        }
      ],
      "payable": false,
      "stateMutability": "view",
      "type": "function"
    },
    {
      "constant": true,
      "inputs": [
        {
          "internalType": "uint256",
          "name": "entrepriseIndex",
          "type": "uint256"
        }
      ],
      "name": "entreprise",
      "outputs": [
        {
          "components": [
            {
              "internalType": "string",
              "name": "name",
              "type": "string"
            },
            {
              "internalType": "address",
              "name": "owner",
              "type": "address"
            },
            {
              "internalType": "uint256",
              "name": "balance",
              "type": "uint256"
            },
            {
              "internalType": "bool",
              "name": "registered",
              "type": "bool"
            },
            {
              "internalType": "address[]",
              "name": "members",
              "type": "address[]"
            },
            {
              "internalType": "uint256",
              "name": "membersNumber",
              "type": "uint256"
            }
          ],
          "internalType": "struct BuildCollective.Entreprise",
          "name": "",
          "type": "tuple"
        }
      ],
      "payable": false,
      "stateMutability": "view",
      "type": "function"
    },
    {
      "constant": false,
      "inputs": [
        {
          "internalType": "string",
          "name": "entrepriseName",
          "type": "string"
        }
      ],
      "name": "createEntreprise",
      "outputs": [
        {
          "components": [
            {
              "internalType": "string",
              "name": "name",
              "type": "string"
            },
            {
              "internalType": "address",
              "name": "owner",
              "type": "address"
            },
            {
              "internalType": "uint256",
              "name": "balance",
              "type": "uint256"
            },
            {
              "internalType": "bool",
              "name": "registered",
              "type": "bool"
            },
            {
              "internalType": "address[]",
              "name": "members",
              "type": "address[]"
            },
            {
              "internalType": "uint256",
              "name": "membersNumber",
              "type": "uint256"
            }
          ],
          "internalType": "struct BuildCollective.Entreprise",
          "name": "",
          "type": "tuple"
        }
      ],
      "payable": false,
      "stateMutability": "nonpayable",
      "type": "function"
    },
    {
      "constant": false,
      "inputs": [
        {
          "internalType": "string",
          "name": "entrepriseName",
          "type": "string"
        }
      ],
      "name": "joinEntreprise",
      "outputs": [
        {
          "internalType": "bool",
          "name": "",
          "type": "bool"
        }
      ],
      "payable": false,
      "stateMutability": "nonpayable",
      "type": "function"
    },
    {
      "constant": false,
      "inputs": [
        {
          "internalType": "uint256",
          "name": "amount",
          "type": "uint256"
        },
        {
          "internalType": "string",
          "name": "entrepriseName",
          "type": "string"
        }
      ],
      "name": "addBalanceToEntreprise",
      "outputs": [
        {
          "internalType": "bool",
          "name": "",
          "type": "bool"
        }
      ],
      "payable": false,
      "stateMutability": "nonpayable",
      "type": "function"
    },
    {
      "constant": false,
      "inputs": [
        {
          "internalType": "string",
          "name": "projectName",
          "type": "string"
        },
        {
          "internalType": "string",
          "name": "entrepriseName",
          "type": "string"
        }
      ],
      "name": "createProjectEntreprise",
      "outputs": [
        {
          "components": [
            {
              "internalType": "string",
              "name": "projectName",
              "type": "string"
            },
            {
              "internalType": "uint256",
              "name": "creatorType",
              "type": "uint256"
            },
            {
              "internalType": "address",
              "name": "creatorUser",
              "type": "address"
            },
            {
              "internalType": "string",
              "name": "creatorEntreprise",
              "type": "string"
            },
            {
              "internalType": "uint256",
              "name": "balance",
              "type": "uint256"
            },
            {
              "internalType": "bool",
              "name": "registered",
              "type": "bool"
            },
            {
              "internalType": "address[]",
              "name": "collaborators",
              "type": "address[]"
            },
            {
              "internalType": "uint256",
              "name": "collaboratorsNumber",
              "type": "uint256"
            },
            {
              "internalType": "string[]",
              "name": "collaboratorsEntreprise",
              "type": "string[]"
            },
            {
              "internalType": "uint256",
              "name": "collaboratorsEntrepriseNumber",
              "type": "uint256"
            }
          ],
          "internalType": "struct BuildCollective.Project",
          "name": "",
          "type": "tuple"
        }
      ],
      "payable": false,
      "stateMutability": "nonpayable",
      "type": "function"
    },
    {
      "constant": false,
      "inputs": [
        {
          "internalType": "uint256",
          "name": "amount",
          "type": "uint256"
        },
        {
          "internalType": "string",
          "name": "projectName",
          "type": "string"
        },
        {
          "internalType": "string",
          "name": "entrepriseName",
          "type": "string"
        }
      ],
      "name": "addBalanceToProjectUsingEntreprise",
      "outputs": [
        {
          "internalType": "bool",
          "name": "",
          "type": "bool"
        }
      ],
      "payable": false,
      "stateMutability": "nonpayable",
      "type": "function"
    },
    {
      "constant": true,
      "inputs": [
        {
          "internalType": "string",
          "name": "projectName",
          "type": "string"
        }
      ],
      "name": "bountiesLength",
      "outputs": [
        {
          "internalType": "uint256",
          "name": "",
          "type": "uint256"
        }
      ],
      "payable": false,
      "stateMutability": "view",
      "type": "function"
    },
    {
      "constant": true,
      "inputs": [
        {
          "internalType": "uint256",
          "name": "bountyId",
          "type": "uint256"
        },
        {
          "internalType": "string",
          "name": "projectName",
          "type": "string"
        }
      ],
      "name": "bounty",
      "outputs": [
        {
          "components": [
            {
              "internalType": "string",
              "name": "description",
              "type": "string"
            },
            {
              "internalType": "uint256",
              "name": "reward",
              "type": "uint256"
            },
            {
              "internalType": "string",
              "name": "solution",
              "type": "string"
            },
            {
              "internalType": "bool",
              "name": "available",
              "type": "bool"
            }
          ],
          "internalType": "struct BuildCollective.Bounty",
          "name": "",
          "type": "tuple"
        }
      ],
      "payable": false,
      "stateMutability": "view",
      "type": "function"
    },
    {
      "constant": false,
      "inputs": [
        {
          "internalType": "string",
          "name": "projectName",
          "type": "string"
        },
        {
          "internalType": "string",
          "name": "description",
          "type": "string"
        },
        {
          "internalType": "uint256",
          "name": "reward",
          "type": "uint256"
        }
      ],
      "name": "createBounty",
      "outputs": [
        {
          "internalType": "bool",
          "name": "",
          "type": "bool"
        }
      ],
      "payable": false,
      "stateMutability": "nonpayable",
      "type": "function"
    },
    {
      "constant": false,
      "inputs": [
        {
          "internalType": "string",
          "name": "projectName",
          "type": "string"
        },
        {
          "internalType": "uint256",
          "name": "bountyId",
          "type": "uint256"
        },
        {
          "internalType": "string",
          "name": "correction",
          "type": "string"
        }
      ],
      "name": "solveBounty",
      "outputs": [
        {
          "internalType": "bool",
          "name": "",
          "type": "bool"
        }
      ],
      "payable": false,
      "stateMutability": "nonpayable",
      "type": "function"
    }
  ],
  "bytecode": "0x6080604052336000806101000a81548173ffffffffffffffffffffffffffffffffffffffff021916908373ffffffffffffffffffffffffffffffffffffffff16021790555034801561005057600080fd5b50614022806100606000396000f3fe608060405234801561001057600080fd5b506004361061012c5760003560e01c806363cc9618116100ad578063b4de794811610071578063b4de7948146103dd578063be47b9f01461040d578063d91921ed1461043d578063efa18bd21461046d578063f039c5961461048b5761012c565b806363cc9618146103115780636c665ca01461034157806381e7e20e1461035f5780638da5cb5b1461038f578063adcfb4fc146103ad5761012c565b80632bfa7d60116100f45780632bfa7d601461022157806330342761146102515780634088b35a1461028157806344f1fb9a146102b15780634795d615146102e15761012c565b806311d5aaa714610131578063128341f814610161578063148eb54e1461019157806315ee4df1146101c15780631b81ee79146101f1575b600080fd5b61014b60048036036101469190810190613292565b6104bb565b6040516101589190613c9b565b60405180910390f35b61017b60048036036101769190810190613376565b61083d565b6040516101889190613c3c565b60405180910390f35b6101ab60048036036101a69190810190613213565b610b74565b6040516101b89190613c3c565b60405180910390f35b6101db60048036036101d691908101906130e7565b610d67565b6040516101e89190613c9b565b60405180910390f35b61020b600480360361020691908101906132bb565b61104e565b6040516102189190613c57565b60405180910390f35b61023b60048036036102369190810190613194565b611235565b6040516102489190613c3c565b60405180910390f35b61026b600480360361026691908101906130e7565b6113ed565b6040516102789190613c79565b60405180910390f35b61029b600480360361029691908101906130e7565b611625565b6040516102a89190613cdf565b60405180910390f35b6102cb60048036036102c69190810190613128565b611662565b6040516102d89190613c9b565b60405180910390f35b6102fb60048036036102f691908101906132bb565b6119ad565b6040516103089190613c3c565b60405180910390f35b61032b60048036036103269190810190613292565b611c73565b6040516103389190613c79565b60405180910390f35b610349611e55565b6040516103569190613cdf565b60405180910390f35b610379600480360361037491908101906130be565b611e5f565b6040516103869190613cbd565b60405180910390f35b610397611f7f565b6040516103a49190613c21565b60405180910390f35b6103c760048036036103c291908101906130e7565b611fa4565b6040516103d49190613cbd565b60405180910390f35b6103f760048036036103f291908101906132bb565b6120fe565b6040516104049190613c3c565b60405180910390f35b6104276004803603610422919081019061330f565b612200565b6040516104349190613c3c565b60405180910390f35b61045760048036036104529190810190613292565b612345565b6040516104649190613c3c565b60405180910390f35b6104756123f9565b6040516104829190613cdf565b60405180910390f35b6104a560048036036104a091908101906130e7565b612403565b6040516104b29190613c3c565b60405180910390f35b6104c3612b8a565b6002600083815260200190815260200160002060405180610140016040529081600082018054600181600116156101000203166002900480601f01602080910402602001604051908101604052809291908181526020018280546001816001161561010002031660029004801561057b5780601f106105505761010080835404028352916020019161057b565b820191906000526020600020905b81548152906001019060200180831161055e57829003601f168201915b50505050508152602001600182015481526020016002820160009054906101000a900473ffffffffffffffffffffffffffffffffffffffff1673ffffffffffffffffffffffffffffffffffffffff1673ffffffffffffffffffffffffffffffffffffffff168152602001600382018054600181600116156101000203166002900480601f01602080910402602001604051908101604052809291908181526020018280546001816001161561010002031660029004801561067d5780601f106106525761010080835404028352916020019161067d565b820191906000526020600020905b81548152906001019060200180831161066057829003601f168201915b50505050508152602001600482015481526020016005820160009054906101000a900460ff161515151581526020016006820180548060200260200160405190810160405280929190818152602001828054801561073057602002820191906000526020600020905b8160009054906101000a900473ffffffffffffffffffffffffffffffffffffffff1673ffffffffffffffffffffffffffffffffffffffff16815260200190600101908083116106e6575b505050505081526020016007820154815260200160088201805480602002602001604051908101604052809291908181526020016000905b82821015610824578382906000526020600020018054600181600116156101000203166002900480601f0160208091040260200160405190810160405280929190818152602001828054600181600116156101000203166002900480156108105780601f106107e557610100808354040283529160200191610810565b820191906000526020600020905b8154815290600101906020018083116107f357829003601f168201915b505050505081526020019060010190610768565b5050505081526020016009820154815250509050919050565b60008083511161084c57600080fd5b600082511161085a57600080fd5b60008061086684612615565b80925081935050508161087857600080fd5b60008061088487612710565b80925081935050508161089657600080fd5b3373ffffffffffffffffffffffffffffffffffffffff166004600085815260200190815260200160002060010160009054906101000a900473ffffffffffffffffffffffffffffffffffffffff1673ffffffffffffffffffffffffffffffffffffffff161461090457600080fd5b876004600085815260200190815260200160002060020154101561092757600080fd5b8760026000838152602001908152602001600020600401600082825401925050819055508760046000858152602001908152602001600020600201600082825403925050819055506000151561097d828861280b565b15151415610b6557606060016002600084815260200190815260200160002060090154016040519080825280602002602001820160405280156109d457816020015b60608152602001906001900390816109bf5790505b50905060008090505b6002600084815260200190815260200160002060090154811015610ae357600260008481526020019081526020016000206008018181548110610a1c57fe5b906000526020600020018054600181600116156101000203166002900480601f016020809104026020016040519081016040528092919081815260200182805460018160011615610100020316600290048015610aba5780601f10610a8f57610100808354040283529160200191610aba565b820191906000526020600020905b815481529060010190602001808311610a9d57829003601f168201915b5050505050828281518110610acb57fe5b602002602001018190525080806001019150506109dd565b508681600260008581526020019081526020016000206009015481518110610b0757fe5b602002602001018190525080600260008481526020019081526020016000206008019080519060200190610b3c929190612bf5565b506002600083815260200190815260200160002060090160008154809291906001019190505550505b60019450505050509392505050565b6000806000610b8286612710565b809250819350505081610b9457600080fd5b6006600082815260200190815260200160002060008681526020019081526020016000206001015460026000838152602001908152602001600020600401541015610bde57600080fd5b60066000828152602001908152602001600020600086815260200190815260200160002060030160009054906101000a900460ff16610c1c57600080fd5b836006600083815260200190815260200160002060008781526020019081526020016000206002019080519060200190610c57929190612c55565b50600060066000838152602001908152602001600020600087815260200190815260200160002060030160006101000a81548160ff02191690831515021790555060066000828152602001908152602001600020600086815260200190815260200160002060010154600260008381526020019081526020016000206004016000828254039250508190555060066000828152602001908152602001600020600086815260200190815260200160002060010154600160003373ffffffffffffffffffffffffffffffffffffffff1673ffffffffffffffffffffffffffffffffffffffff168152602001908152602001600020600101600082825401925050819055506001925050509392505050565b610d6f612b8a565b6000825111610d7d57600080fd5b604051806101400160405280838152602001600081526020013373ffffffffffffffffffffffffffffffffffffffff168152602001604051806020016040528060008152508152602001600081526020016001151581526020016001604051908082528060200260200182016040528015610e075781602001602082028038833980820191505090505b508152602001600181526020016000604051908082528060200260200182016040528015610e4957816020015b6060815260200190600190039081610e345790505b50815260200160008152506002600060035481526020019081526020016000206000820151816000019080519060200190610e85929190612cd5565b506020820151816001015560408201518160020160006101000a81548173ffffffffffffffffffffffffffffffffffffffff021916908373ffffffffffffffffffffffffffffffffffffffff1602179055506060820151816003019080519060200190610ef3929190612cd5565b506080820151816004015560a08201518160050160006101000a81548160ff02191690831515021790555060c0820151816006019080519060200190610f3a929190612d55565b5060e08201518160070155610100820151816008019080519060200190610f62929190612ddf565b50610120820151816009015590505033600260006003548152602001908152602001600020600601600081548110610f9657fe5b9060005260206000200160006101000a81548173ffffffffffffffffffffffffffffffffffffffff021916908373ffffffffffffffffffffffffffffffffffffffff1602179055506002600060035481526020019081526020016000206040516110009190613bf3565b60405180910390206003547f4b5a9ef283942dab0289ef4c8b204212f752cca5381e033d4b7da5ac38ff1c1460405160405180910390a3600360008154809291906001019190505550919050565b611056612e3f565b60008061106284612710565b80925081935050508161107457600080fd5b6007600082815260200190815260200160002054851061109357600080fd5b600660008281526020019081526020016000206000868152602001908152602001600020604051806080016040529081600082018054600181600116156101000203166002900480601f01602080910402602001604051908101604052809291908181526020018280546001816001161561010002031660029004801561115b5780601f106111305761010080835404028352916020019161115b565b820191906000526020600020905b81548152906001019060200180831161113e57829003601f168201915b5050505050815260200160018201548152602001600282018054600181600116156101000203166002900480601f0160208091040260200160405190810160405280929190818152602001828054600181600116156101000203166002900480156112075780601f106111dc57610100808354040283529160200191611207565b820191906000526020600020905b8154815290600101906020018083116111ea57829003601f168201915b505050505081526020016003820160009054906101000a900460ff1615151515815250509250505092915050565b600080600061124386612710565b80925081935050508161125557600080fd5b836002600083815260200190815260200160002060040154101561127857600080fd5b6002600082815260200190815260200160002060020160009054906101000a900473ffffffffffffffffffffffffffffffffffffffff1673ffffffffffffffffffffffffffffffffffffffff163373ffffffffffffffffffffffffffffffffffffffff16146112e657600080fd5b6000600760008381526020019081526020016000205490506040518060800160405280878152602001868152602001604051806020016040528060008152508152602001600115158152506006600084815260200190815260200160002060008381526020019081526020016000206000820151816000019080519060200190611371929190612cd5565b50602082015181600101556040820151816002019080519060200190611398929190612cd5565b5060608201518160030160006101000a81548160ff0219169083151502179055509050506007600083815260200190815260200160002060008154809291906001019190505550600193505050509392505050565b6113f5612e69565b600082511161140357600080fd5b6040518060c001604052808381526020013373ffffffffffffffffffffffffffffffffffffffff1681526020016000815260200160011515815260200160016040519080825280602002602001820160405280156114705781602001602082028038833980820191505090505b508152602001600181525060046000600554815260200190815260200160002060008201518160000190805190602001906114ac929190612cd5565b5060208201518160010160006101000a81548173ffffffffffffffffffffffffffffffffffffffff021916908373ffffffffffffffffffffffffffffffffffffffff1602179055506040820151816002015560608201518160030160006101000a81548160ff021916908315150217905550608082015181600401908051906020019061153a929190612d55565b5060a082015181600501559050503360046000600554815260200190815260200160002060040160008154811061156d57fe5b9060005260206000200160006101000a81548173ffffffffffffffffffffffffffffffffffffffff021916908373ffffffffffffffffffffffffffffffffffffffff1602179055506004600060055481526020019081526020016000206040516115d79190613bdc565b60405180910390206005547f9e36d4d1fadbf1e54e895a3c65a2a6284a0e611653cc6c6eec1d4126543c937060405160405180910390a3600560008154809291906001019190505550919050565b600080600061163384612710565b80925081935050508161164557600080fd5b600760008281526020019081526020016000205492505050919050565b61166a612b8a565b600083511161167857600080fd5b600082511161168657600080fd5b60008061169284612615565b8092508193505050816116a457600080fd5b3373ffffffffffffffffffffffffffffffffffffffff166004600083815260200190815260200160002060010160009054906101000a900473ffffffffffffffffffffffffffffffffffffffff1673ffffffffffffffffffffffffffffffffffffffff161461171257600080fd5b604051806101400160405280868152602001600181526020013373ffffffffffffffffffffffffffffffffffffffff16815260200185815260200160008152602001600115158152602001600060405190808252806020026020018201604052801561178d5781602001602082028038833980820191505090505b5081526020016000815260200160016040519080825280602002602001820160405280156117cf57816020015b60608152602001906001900390816117ba5790505b5081526020016001815250600260006003548152602001908152602001600020600082015181600001908051906020019061180b929190612cd5565b506020820151816001015560408201518160020160006101000a81548173ffffffffffffffffffffffffffffffffffffffff021916908373ffffffffffffffffffffffffffffffffffffffff1602179055506060820151816003019080519060200190611879929190612cd5565b506080820151816004015560a08201518160050160006101000a81548160ff02191690831515021790555060c08201518160060190805190602001906118c0929190612d55565b5060e082015181600701556101008201518160080190805190602001906118e8929190612ddf565b5061012082015181600901559050508360026000600354815260200190815260200160002060080160008154811061191c57fe5b906000526020600020019080519060200190611939929190612c55565b5060026000600354815260200190815260200160002060405161195c9190613bf3565b60405180910390206003547f4b5a9ef283942dab0289ef4c8b204212f752cca5381e033d4b7da5ac38ff1c1460405160405180910390a3600360008154809291906001019190505550505092915050565b600082600160003373ffffffffffffffffffffffffffffffffffffffff1673ffffffffffffffffffffffffffffffffffffffff1681526020019081526020016000206001015410156119fe57600080fd5b600080611a0a84612710565b809250819350505081611a1c57600080fd5b84600260008381526020019081526020016000206004016000828254019250508190555084600160003373ffffffffffffffffffffffffffffffffffffffff1673ffffffffffffffffffffffffffffffffffffffff1681526020019081526020016000206001016000828254039250508190555060001515611a9e8233612926565b15151415611c675760606001600260008481526020019081526020016000206007015401604051908082528060200260200182016040528015611af05781602001602082028038833980820191505090505b50905060008090505b6002600084815260200190815260200160002060070154811015611bb657600260008481526020019081526020016000206006018181548110611b3857fe5b9060005260206000200160009054906101000a900473ffffffffffffffffffffffffffffffffffffffff16828281518110611b6f57fe5b602002602001019073ffffffffffffffffffffffffffffffffffffffff16908173ffffffffffffffffffffffffffffffffffffffff16815250508080600101915050611af9565b503381600260008581526020019081526020016000206007015481518110611bda57fe5b602002602001019073ffffffffffffffffffffffffffffffffffffffff16908173ffffffffffffffffffffffffffffffffffffffff168152505080600260008481526020019081526020016000206006019080519060200190611c3e929190612eb7565b506002600083815260200190815260200160002060070160008154809291906001019190505550505b60019250505092915050565b611c7b612e69565b600460008381526020019081526020016000206040518060c0016040529081600082018054600181600116156101000203166002900480601f016020809104026020016040519081016040528092919081815260200182805460018160011615610100020316600290048015611d325780601f10611d0757610100808354040283529160200191611d32565b820191906000526020600020905b815481529060010190602001808311611d1557829003601f168201915b505050505081526020016001820160009054906101000a900473ffffffffffffffffffffffffffffffffffffffff1673ffffffffffffffffffffffffffffffffffffffff1673ffffffffffffffffffffffffffffffffffffffff168152602001600282015481526020016003820160009054906101000a900460ff1615151515815260200160048201805480602002602001604051908101604052809291908181526020018280548015611e3b57602002820191906000526020600020905b8160009054906101000a900473ffffffffffffffffffffffffffffffffffffffff1673ffffffffffffffffffffffffffffffffffffffff1681526020019060010190808311611df1575b505050505081526020016005820154815250509050919050565b6000600354905090565b611e67612f41565b600160008373ffffffffffffffffffffffffffffffffffffffff1673ffffffffffffffffffffffffffffffffffffffff168152602001908152602001600020604051806060016040529081600082018054600181600116156101000203166002900480601f016020809104026020016040519081016040528092919081815260200182805460018160011615610100020316600290048015611f4a5780601f10611f1f57610100808354040283529160200191611f4a565b820191906000526020600020905b815481529060010190602001808311611f2d57829003601f168201915b50505050508152602001600182015481526020016002820160009054906101000a900460ff1615151515815250509050919050565b6000809054906101000a900473ffffffffffffffffffffffffffffffffffffffff1681565b611fac612f41565b6000825111611fba57600080fd5b60405180606001604052808381526020016000815260200160011515815250600160003373ffffffffffffffffffffffffffffffffffffffff1673ffffffffffffffffffffffffffffffffffffffff1681526020019081526020016000206000820151816000019080519060200190612034929190612cd5565b506020820151816001015560408201518160020160006101000a81548160ff021916908315150217905550905050600160003373ffffffffffffffffffffffffffffffffffffffff1673ffffffffffffffffffffffffffffffffffffffff1681526020019081526020016000206040516120ae9190613c0a565b60405180910390203373ffffffffffffffffffffffffffffffffffffffff167fc24de5261f8eff14607134de76bea692f6b10ab7b8b21d627fa4cd6347365b7460405160405180910390a3919050565b600082600160003373ffffffffffffffffffffffffffffffffffffffff1673ffffffffffffffffffffffffffffffffffffffff16815260200190815260200160002060010154101561214f57600080fd5b60008061215b84612615565b80925081935050508161216d57600080fd5b61217781336129ee565b61218057600080fd5b84600460008381526020019081526020016000206002016000828254019250508190555084600160003373ffffffffffffffffffffffffffffffffffffffff1673ffffffffffffffffffffffffffffffffffffffff1681526020019081526020016000206001016000828254039250508190555060019250505092915050565b600080600061220e85612710565b80925081935050508161222057600080fd5b856002600083815260200190815260200160002060040154101561224357600080fd5b6002600082815260200190815260200160002060020160009054906101000a900473ffffffffffffffffffffffffffffffffffffffff1673ffffffffffffffffffffffffffffffffffffffff163373ffffffffffffffffffffffffffffffffffffffff16146122b157600080fd5b6122bb8185612926565b6122c457600080fd5b85600260008381526020019081526020016000206004016000828254039250508190555085600160008673ffffffffffffffffffffffffffffffffffffffff1673ffffffffffffffffffffffffffffffffffffffff168152602001908152602001600020600101600082825401925050819055506001925050509392505050565b6000600160003373ffffffffffffffffffffffffffffffffffffffff1673ffffffffffffffffffffffffffffffffffffffff16815260200190815260200160002060020160009054906101000a900460ff166123a057600080fd5b81600160003373ffffffffffffffffffffffffffffffffffffffff1673ffffffffffffffffffffffffffffffffffffffff1681526020019081526020016000206001016000828254019250508190555060019050919050565b6000600554905090565b60008082511161241257600080fd5b60008061241e84612615565b80925081935050508161243057600080fd5b6000151561243e82336129ee565b15151461244a57600080fd5b606060016004600084815260200190815260200160002060050154016040519080825280602002602001820160405280156124945781602001602082028038833980820191505090505b50905060008090505b600460008481526020019081526020016000206005015481101561255a576004600084815260200190815260200160002060040181815481106124dc57fe5b9060005260206000200160009054906101000a900473ffffffffffffffffffffffffffffffffffffffff1682828151811061251357fe5b602002602001019073ffffffffffffffffffffffffffffffffffffffff16908173ffffffffffffffffffffffffffffffffffffffff1681525050808060010191505061249d565b50338160046000858152602001908152602001600020600501548151811061257e57fe5b602002602001019073ffffffffffffffffffffffffffffffffffffffff16908173ffffffffffffffffffffffffffffffffffffffff1681525050806004600084815260200190815260200160002060040190805190602001906125e2929190612eb7565b50600460008381526020019081526020016000206005016000815480929190600101919050555060019350505050919050565b60008060008090505b6005548110156126ff576126e0600460008381526020019081526020016000206000018054600181600116156101000203166002900480601f0160208091040260200160405190810160405280929190818152602001828054600181600116156101000203166002900480156126d55780601f106126aa576101008083540402835291602001916126d5565b820191906000526020600020905b8154815290600101906020018083116126b857829003601f168201915b505050505085612ab6565b156126f257600181925092505061270b565b808060010191505061261e565b50600080809050915091505b915091565b60008060008090505b6003548110156127fa576127db600260008381526020019081526020016000206000018054600181600116156101000203166002900480601f0160208091040260200160405190810160405280929190818152602001828054600181600116156101000203166002900480156127d05780601f106127a5576101008083540402835291602001916127d0565b820191906000526020600020905b8154815290600101906020018083116127b357829003601f168201915b505050505085612ab6565b156127ed576001819250925050612806565b8080600101915050612719565b50600080809050915091505b915091565b600080600090505b600260008581526020019081526020016000206009015481101561291a576128fe60026000868152602001908152602001600020600801828154811061285557fe5b906000526020600020018054600181600116156101000203166002900480601f0160208091040260200160405190810160405280929190818152602001828054600181600116156101000203166002900480156128f35780601f106128c8576101008083540402835291602001916128f3565b820191906000526020600020905b8154815290600101906020018083116128d657829003601f168201915b505050505084612ab6565b1561290d576001915050612920565b8080600101915050612813565b50600090505b92915050565b600080600090505b60026000858152602001908152602001600020600701548110156129e2578273ffffffffffffffffffffffffffffffffffffffff1660026000868152602001908152602001600020600601828154811061298457fe5b9060005260206000200160009054906101000a900473ffffffffffffffffffffffffffffffffffffffff1673ffffffffffffffffffffffffffffffffffffffff1614156129d55760019150506129e8565b808060010191505061292e565b50600090505b92915050565b600080600090505b6004600085815260200190815260200160002060050154811015612aaa578273ffffffffffffffffffffffffffffffffffffffff16600460008681526020019081526020016000206004018281548110612a4c57fe5b9060005260206000200160009054906101000a900473ffffffffffffffffffffffffffffffffffffffff1673ffffffffffffffffffffffffffffffffffffffff161415612a9d576001915050612ab0565b80806001019150506129f6565b50600090505b92915050565b60006060839050606083905060008251905081518114612adc5760009350505050612b84565b60008090505b81811015612b7b57828181518110612af657fe5b602001015160f81c60f81b7effffffffffffffffffffffffffffffffffffffffffffffffffffffffffffff1916848281518110612b2f57fe5b602001015160f81c60f81b7effffffffffffffffffffffffffffffffffffffffffffffffffffffffffffff191614612b6e576000945050505050612b84565b8080600101915050612ae2565b50600193505050505b92915050565b6040518061014001604052806060815260200160008152602001600073ffffffffffffffffffffffffffffffffffffffff1681526020016060815260200160008152602001600015158152602001606081526020016000815260200160608152602001600081525090565b828054828255906000526020600020908101928215612c44579160200282015b82811115612c43578251829080519060200190612c33929190612cd5565b5091602001919060010190612c15565b5b509050612c519190612f64565b5090565b828054600181600116156101000203166002900490600052602060002090601f016020900481019282601f10612c9657805160ff1916838001178555612cc4565b82800160010185558215612cc4579182015b82811115612cc3578251825591602001919060010190612ca8565b5b509050612cd19190612f90565b5090565b828054600181600116156101000203166002900490600052602060002090601f016020900481019282601f10612d1657805160ff1916838001178555612d44565b82800160010185558215612d44579182015b82811115612d43578251825591602001919060010190612d28565b5b509050612d519190612f90565b5090565b828054828255906000526020600020908101928215612dce579160200282015b82811115612dcd5782518260006101000a81548173ffffffffffffffffffffffffffffffffffffffff021916908373ffffffffffffffffffffffffffffffffffffffff16021790555091602001919060010190612d75565b5b509050612ddb9190612fb5565b5090565b828054828255906000526020600020908101928215612e2e579160200282015b82811115612e2d578251829080519060200190612e1d929190612cd5565b5091602001919060010190612dff565b5b509050612e3b9190612f64565b5090565b60405180608001604052806060815260200160008152602001606081526020016000151581525090565b6040518060c0016040528060608152602001600073ffffffffffffffffffffffffffffffffffffffff1681526020016000815260200160001515815260200160608152602001600081525090565b828054828255906000526020600020908101928215612f30579160200282015b82811115612f2f5782518260006101000a81548173ffffffffffffffffffffffffffffffffffffffff021916908373ffffffffffffffffffffffffffffffffffffffff16021790555091602001919060010190612ed7565b5b509050612f3d9190612fb5565b5090565b604051806060016040528060608152602001600081526020016000151581525090565b612f8d91905b80821115612f895760008181612f809190612ff8565b50600101612f6a565b5090565b90565b612fb291905b80821115612fae576000816000905550600101612f96565b5090565b90565b612ff591905b80821115612ff157600081816101000a81549073ffffffffffffffffffffffffffffffffffffffff021916905550600101612fbb565b5090565b90565b50805460018160011615610100020316600290046000825580601f1061301e575061303d565b601f01602090049060005260206000209081019061303c9190612f90565b5b50565b60008135905061304f81613fb1565b92915050565b600082601f83011261306657600080fd5b813561307961307482613d27565b613cfa565b9150808252602083016020830185838301111561309557600080fd5b6130a0838284613ef0565b50505092915050565b6000813590506130b881613fc8565b92915050565b6000602082840312156130d057600080fd5b60006130de84828501613040565b91505092915050565b6000602082840312156130f957600080fd5b600082013567ffffffffffffffff81111561311357600080fd5b61311f84828501613055565b91505092915050565b6000806040838503121561313b57600080fd5b600083013567ffffffffffffffff81111561315557600080fd5b61316185828601613055565b925050602083013567ffffffffffffffff81111561317e57600080fd5b61318a85828601613055565b9150509250929050565b6000806000606084860312156131a957600080fd5b600084013567ffffffffffffffff8111156131c357600080fd5b6131cf86828701613055565b935050602084013567ffffffffffffffff8111156131ec57600080fd5b6131f886828701613055565b9250506040613209868287016130a9565b9150509250925092565b60008060006060848603121561322857600080fd5b600084013567ffffffffffffffff81111561324257600080fd5b61324e86828701613055565b935050602061325f868287016130a9565b925050604084013567ffffffffffffffff81111561327c57600080fd5b61328886828701613055565b9150509250925092565b6000602082840312156132a457600080fd5b60006132b2848285016130a9565b91505092915050565b600080604083850312156132ce57600080fd5b60006132dc858286016130a9565b925050602083013567ffffffffffffffff8111156132f957600080fd5b61330585828601613055565b9150509250929050565b60008060006060848603121561332457600080fd5b6000613332868287016130a9565b935050602084013567ffffffffffffffff81111561334f57600080fd5b61335b86828701613055565b925050604061336c86828701613040565b9150509250925092565b60008060006060848603121561338b57600080fd5b6000613399868287016130a9565b935050602084013567ffffffffffffffff8111156133b657600080fd5b6133c286828701613055565b925050604084013567ffffffffffffffff8111156133df57600080fd5b6133eb86828701613055565b9150509250925092565b600061340183836134b9565b60208301905092915050565b600061341983836134d7565b60208301905092915050565b60006134318383613544565b905092915050565b6000613445838361361e565b905092915050565b60006134598383613699565b60208301905092915050565b600061347183836136a8565b905092915050565b600061348583836136e1565b905092915050565b600061349983836136e1565b905092915050565b60006134ad8383613bcd565b60208301905092915050565b6134c281613ea8565b82525050565b6134d181613ea8565b82525050565b6134e081613ea8565b82525050565b60006134f182613db2565b6134fb8185613e1d565b935061350683613d53565b8060005b8381101561353757815161351e88826133f5565b975061352983613de9565b92505060018101905061350a565b5085935050505092915050565b600061354f82613dbd565b6135598185613e2e565b935061356483613d63565b8060005b8381101561359c5761357982613f80565b613583888261340d565b975061358e83613df6565b925050600181019050613568565b5085935050505092915050565b60006135b482613dc8565b6135be8185613e39565b9350836020820285016135d085613d78565b8060005b8581101561360c57848403895281516135ed8582613465565b94506135f883613e03565b925060208a019950506001810190506135d4565b50829750879550505050505092915050565b600061362982613dd3565b6136338185613e4a565b935061363e83613d88565b8060005b8381101561366e57816136558882613479565b975061366083613e10565b925050600181019050613642565b5085935050505092915050565b61368481613eba565b82525050565b61369381613eba565b82525050565b6136a281613eba565b82525050565b60006136b382613dde565b6136bd8185613e55565b93506136cd818560208601613eff565b6136d681613f93565b840191505092915050565b6000815460018116600081146136fe576001811461372457613768565b607f600283041661370f8187613e66565b955060ff198316865260208601935050613768565b600282046137328187613e66565b955061373d85613d9d565b60005b8281101561375f57815481890152600182019150602081019050613740565b80880195505050505b505092915050565b6000608083016000830151848203600086015261378d82826136a8565b91505060208301516137a26020860182613baf565b50604083015184820360408601526137ba82826136a8565b91505060608301516137cf606086018261367b565b508091505092915050565b600060c08301600083015184820360008601526137f782826136a8565b915050602083015161380c60208601826134b9565b50604083015161381f6040860182613baf565b506060830151613832606086018261367b565b506080830151848203608086015261384a82826134e6565b91505060a083015161385f60a0860182613baf565b508091505092915050565b6000808301600080840161387e868261348d565b9550506001840154905061389181613f32565b61389b868261340d565b955050600284015490506138ae81613f66565b6138b886826134a1565b955050600384015490506138cb81613f4c565b6138d5868261344d565b955050600484016138e68682613425565b955050600584015490506138f981613f66565b61390386826134a1565b955050849250505092915050565b600061014083016000830151848203600086015261392f82826136a8565b91505060208301516139446020860182613baf565b50604083015161395760408601826134b9565b506060830151848203606086015261396f82826136a8565b91505060808301516139846080860182613baf565b5060a083015161399760a086018261367b565b5060c083015184820360c08601526139af82826134e6565b91505060e08301516139c460e0860182613baf565b506101008301518482036101008601526139de82826135a9565b9150506101208301516139f5610120860182613baf565b508091505092915050565b60008083016000808401613a14868261348d565b95505060018401549050613a2781613f66565b613a3186826134a1565b95505060028401549050613a4481613f32565b613a4e868261340d565b95505060038401613a5f868261348d565b95505060048401549050613a7281613f66565b613a7c86826134a1565b95505060058401549050613a8f81613f4c565b613a99868261344d565b95505060068401613aaa8682613425565b95505060078401549050613abd81613f66565b613ac786826134a1565b95505060088401613ad88682613439565b95505060098401549050613aeb81613f66565b613af586826134a1565b955050849250505092915050565b60006060830160008301518482036000860152613b2082826136a8565b9150506020830151613b356020860182613baf565b506040830151613b48604086018261367b565b508091505092915050565b60008083016000808401613b67868261348d565b95505060018401549050613b7a81613f66565b613b8486826134a1565b95505060028401549050613b9781613f4c565b613ba1868261344d565b955050849250505092915050565b613bb881613ee6565b82525050565b613bc781613ee6565b82525050565b613bd681613ee6565b82525050565b6000613be8828461386a565b915081905092915050565b6000613bff8284613a00565b915081905092915050565b6000613c168284613b53565b915081905092915050565b6000602082019050613c3660008301846134c8565b92915050565b6000602082019050613c51600083018461368a565b92915050565b60006020820190508181036000830152613c718184613770565b905092915050565b60006020820190508181036000830152613c9381846137da565b905092915050565b60006020820190508181036000830152613cb58184613911565b905092915050565b60006020820190508181036000830152613cd78184613b03565b905092915050565b6000602082019050613cf46000830184613bbe565b92915050565b6000604051905081810181811067ffffffffffffffff82111715613d1d57600080fd5b8060405250919050565b600067ffffffffffffffff821115613d3e57600080fd5b601f19601f8301169050602081019050919050565b6000819050602082019050919050565b60008190508160005260206000209050919050565b6000819050602082019050919050565b60008190508160005260206000209050919050565b60008190508160005260206000209050919050565b600081519050919050565b600081549050919050565b600081519050919050565b600081549050919050565b600081519050919050565b6000602082019050919050565b6000600182019050919050565b6000602082019050919050565b6000600182019050919050565b600082825260208201905092915050565b600081905092915050565b600082825260208201905092915050565b600081905092915050565b600082825260208201905092915050565b600081905092915050565b600073ffffffffffffffffffffffffffffffffffffffff82169050919050565b600060ff82169050919050565b6000819050919050565b6000613eb382613ec6565b9050919050565b60008115159050919050565b600073ffffffffffffffffffffffffffffffffffffffff82169050919050565b6000819050919050565b82818337600083830152505050565b60005b83811015613f1d578082015181840152602081019050613f02565b83811115613f2c576000848401525b50505050565b6000613f45613f4083613fa4565b613e71565b9050919050565b6000613f5f613f5a83613fa4565b613e91565b9050919050565b6000613f79613f7483613fa4565b613e9e565b9050919050565b6000613f8c8254613f32565b9050919050565b6000601f19601f8301169050919050565b60008160001c9050919050565b613fba81613ea8565b8114613fc557600080fd5b50565b613fd181613ee6565b8114613fdc57600080fd5b5056fea365627a7a723158205c2f9e785d16cf6eb984522cf32791e861bf46486afdc072bd2b43e9a1d372b96c6578706572696d656e74616cf564736f6c63430005100040",
  "source": "pragma solidity >=0.4.22 <0.9.0;\npragma experimental ABIEncoderV2;\n\nimport \"./Ownable.sol\";\n\ncontract BuildCollective is Ownable {\n  struct User {\n    string username;\n    uint256 balance;\n    bool registered;\n  }\n\n  struct Entreprise {\n    string name;\n    address owner;\n    uint256 balance;\n    bool registered;\n    address[] members;\n    uint membersNumber;\n  }\n\n  struct Project {\n    string projectName;\n    uint creatorType;   // 0 for User project, 1 for Entreprise project\n    address creatorUser;\n    string creatorEntreprise;\n    uint256 balance;\n    bool registered;\n    address[] collaborators;\n    uint collaboratorsNumber;\n    string[] collaboratorsEntreprise;\n    uint collaboratorsEntrepriseNumber;\n  }\n\n  struct Bounty {\n    string description;\n    uint reward;\n    string solution;\n    bool available;\n  }\n\n  mapping(address => User) private users;\n\n  mapping(uint => Project) private projects;\n  uint private projectCount;\n\n  mapping(uint => Entreprise) private entreprises;\n  uint private entrepriseCount;\n\n  mapping(uint => mapping(uint => Bounty)) bounties;\n  mapping(uint => uint) bountiesNumber; // number of bounties for each project\n\n  event UserSignedUp(address indexed userAddress, User indexed user);\n  event ProjectCreated(uint indexed projectIndex, Project indexed project);\n  event EntrepriseCreated(uint indexed entrepriseIndex, Entreprise indexed entreprise);\n\n  function user(address userAddress) public view returns (User memory) {\n    return users[userAddress];\n  }\n\n  function signUp(string memory username) public returns (User memory) {\n    require(bytes(username).length > 0);\n    users[msg.sender] = User(username, 0, true);\n    emit UserSignedUp(msg.sender, users[msg.sender]);\n  }\n\n  function addBalance(uint256 amount) public returns (bool) {\n    require(users[msg.sender].registered);\n    users[msg.sender].balance += amount;\n    return true;\n  }\n\n  // ----------- Project functions -----------------------\n\n  function projectsLength() public view returns (uint) {\n    return projectCount;\n  }\n\n  function project(uint projectIndex) public view returns (Project memory) {\n    return projects[projectIndex];\n  }\n\n  function createProject(string memory projectName) public returns (Project memory) {\n    require(bytes(projectName).length > 0);\n    projects[projectCount] = Project(projectName, 0, msg.sender, \"\", 0, true, new address[](1), 1, new string[](0), 0);\n    projects[projectCount].collaborators[0] = msg.sender;\n    emit ProjectCreated(projectCount, projects[projectCount]);\n    projectCount++;\n  }\n\n  \n  function addBalanceToProject(uint256 amount, string memory projectName) public returns (bool) {\n    require(users[msg.sender].balance >= amount);\n    bool exist;\n    uint projectIndex;\n    (exist,projectIndex) = getProjectIndex(projectName);\n    require(exist);  // will throw an error if the projectName doesn't exist\n    projects[projectIndex].balance += amount;\n    users[msg.sender].balance -= amount;\n    \n    // if the user isn't among the collaborators, add him to the collaborators array\n    if (isCollaborator(projectIndex, msg.sender) == false){\n    \t// copy the collaborator array in a bigger array\n    \taddress[] memory newCollaborators = new address[](projects[projectIndex].collaboratorsNumber + 1);\n    \tfor (uint i = 0; i < projects[projectIndex].collaboratorsNumber; i++){\n    \t  newCollaborators[i] = projects[projectIndex].collaborators[i];      \t  \n    \t}\n    \tnewCollaborators[projects[projectIndex].collaboratorsNumber] = msg.sender; // add the new collaborator at the end\n    \tprojects[projectIndex].collaborators = newCollaborators;\n    \tprojects[projectIndex].collaboratorsNumber++;\n    }\n    return true;    \n  }\n\n  // retrieve project index using project name\n  function getProjectIndex(string memory projectName) private view returns (bool,uint){\n    for(uint i = 0; i < projectCount; i++){\n      if (stringsEquals(projects[i].projectName, projectName)){\n        return (true,i);\n      }\n    }\n    return (false,0);\n  }\n\n  // search if an address is among the collaborators of a project\n  function isCollaborator(uint projectIndex, address addr) private view returns (bool){\n    for(uint i = 0; i < projects[projectIndex].collaboratorsNumber; i++){\n      if (projects[projectIndex].collaborators[i] == addr){\n        return true;\n      }\n    }\n    return false;\n  }\n\n  function stringsEquals(string memory s1, string memory s2) private pure returns (bool) {\n    bytes memory b1 = bytes(s1);\n    bytes memory b2 = bytes(s2);\n    uint256 l1 = b1.length;\n    if (l1 != b2.length) return false;\n    for (uint256 i=0; i<l1; i++) {\n        if (b1[i] != b2[i]) return false;\n    }\n    return true;\n  }\n  \n  // function to send tokens from a project to one of the collaborators.\n  // can only be done by the creator of the project.\n  function allocateProjectBudget(uint256 amount, string memory projectName, address addr) public returns (bool) {\n    bool exist;\n    uint projectIndex;\n    (exist,projectIndex) = getProjectIndex(projectName);\n    require(exist);  // error if the projectName doesn't exist\n    require(projects[projectIndex].balance >= amount); // error if the project doesn't have enough funds to send\n    require(msg.sender == projects[projectIndex].creatorUser); // error if the function isn't called by the creator of the project\n    require(isCollaborator(projectIndex, addr)); // error if the receiver isn't among the collaborators\n    \n    projects[projectIndex].balance -= amount;\n    users[addr].balance += amount;\n    return true;\n  }\n\n  // ------------------- Entreprise functions -----------------------------\n\n  function entreprisesLength() public view returns (uint) {\n    return entrepriseCount;\n  }\n\n  function entreprise(uint entrepriseIndex) public view returns (Entreprise memory) {\n    return entreprises[entrepriseIndex];\n  }\n\n  function createEntreprise(string memory entrepriseName) public returns (Entreprise memory) {\n    require(bytes(entrepriseName).length > 0);\n    entreprises[entrepriseCount] = Entreprise(entrepriseName, msg.sender, 0, true, new address[](1), 1);\n    entreprises[entrepriseCount].members[0] = msg.sender;\n    emit EntrepriseCreated(entrepriseCount, entreprises[entrepriseCount]);\n    entrepriseCount++;\n  }\n\n  // retrieve entreprise index using entreprise name\n  function getEntrepriseIndex(string memory entrepriseName) private view returns (bool,uint){\n    for(uint i = 0; i < entrepriseCount; i++){\n      if (stringsEquals(entreprises[i].name, entrepriseName)){\n        return (true,i);\n      }\n    }\n    return (false,0);\n  }\n\n  // join an existing entreprise\n  function joinEntreprise(string memory entrepriseName) public returns (bool) {\n    require(bytes(entrepriseName).length > 0);\n    bool exist;\n    uint entrepriseIndex;\n    (exist,entrepriseIndex) = getEntrepriseIndex(entrepriseName); \n    require (exist); // error if the entreprise doesn't exist\n    require(isMember(entrepriseIndex, msg.sender) == false); // error if the user is already a member of the entreprise \n\t  // copy member array in a bigger array\n    address[] memory newMembers = new address[](entreprises[entrepriseIndex].membersNumber + 1);\n    for (uint i = 0; i < entreprises[entrepriseIndex].membersNumber; i++){\n      newMembers[i] = entreprises[entrepriseIndex].members[i];      \t  \n    }\n    newMembers[entreprises[entrepriseIndex].membersNumber] = msg.sender; // add the new member at the end\n    entreprises[entrepriseIndex].members = newMembers;\n    entreprises[entrepriseIndex].membersNumber++;\n\n    return true;        \n  }\n\n  // search if an address is among the members of an entreprise\n  function isMember(uint entrepriseIndex, address addr) private view returns (bool){\n    for(uint i = 0; i < entreprises[entrepriseIndex].membersNumber; i++){\n      if (entreprises[entrepriseIndex].members[i] == addr){\n        return true;\n      }\n    }\n    return false;\n  }\n\n  // a member can add funds to an entreprise\n  function addBalanceToEntreprise(uint256 amount, string memory entrepriseName) public returns (bool) {\n    require(users[msg.sender].balance >= amount);\n    bool exist;\n    uint entrepriseIndex;\n    (exist,entrepriseIndex) = getEntrepriseIndex(entrepriseName);\n    require(exist);  // error if the entrepriseName doesn't exist\n    require(isMember(entrepriseIndex, msg.sender)); // error if the sender isn't among the members of the entreprise\n    entreprises[entrepriseIndex].balance += amount;\n    users[msg.sender].balance -= amount;\n    \n    return true;    \n  }\n\n  // the entreprise owner can create a project using his entreprise\n  function createProjectEntreprise(string memory projectName, string memory entrepriseName) public returns (Project memory) {\n    require(bytes(projectName).length > 0);\n    require(bytes(entrepriseName).length > 0);\n    bool exist;\n    uint entrepriseIndex;\n    (exist,entrepriseIndex) = getEntrepriseIndex(entrepriseName); \n    require (exist); // error if the entreprise doesn't exist\n    require(entreprises[entrepriseIndex].owner == msg.sender); // error if the person creating the entreprise project isn't the owner\n    projects[projectCount] = Project(projectName, 1, msg.sender, entrepriseName, 0, true, new address[](0), 0, new string[](1), 1);\n    projects[projectCount].collaboratorsEntreprise[0] = entrepriseName;\n    emit ProjectCreated(projectCount, projects[projectCount]);\n    projectCount++;\n  }\n\n  // the entreprise owner can fund and existing project using his entreprise\n  function addBalanceToProjectUsingEntreprise(uint256 amount, string memory projectName, string memory entrepriseName) public returns (bool) {\n    require(bytes(projectName).length > 0);\n    require(bytes(entrepriseName).length > 0);\n    \n    bool exist;\n    uint entrepriseIndex;\n    (exist,entrepriseIndex) = getEntrepriseIndex(entrepriseName); \n    require (exist); // error if the entreprise doesn't exist\n    \n    bool exist2;\n    uint projectIndex;\n    (exist2,projectIndex) = getProjectIndex(projectName);\n    require(exist2);  // error if the projectName doesn't exist\n    \n    require(entreprises[entrepriseIndex].owner == msg.sender); // error if the person sending funds isn't the entreprise owner\n    require(entreprises[entrepriseIndex].balance >= amount); // error if the entreprise doesn't have enough tokens\n\n    projects[projectIndex].balance += amount;\n    entreprises[entrepriseIndex].balance -= amount;\n\n    // if the entreprise isn't among the collaborators, add it to the collaboratorsEntreprise array\n    if (isCollaboratorEntreprise(projectIndex, entrepriseName) == false){\n    \t// copy the collaboratorEntreprises array in a bigger array\n    \tstring[] memory newCollaborators = new string[](projects[projectIndex].collaboratorsEntrepriseNumber + 1);\n    \tfor (uint i = 0; i < projects[projectIndex].collaboratorsEntrepriseNumber; i++){\n    \t  newCollaborators[i] = projects[projectIndex].collaboratorsEntreprise[i];      \t  \n    \t}\n    \tnewCollaborators[projects[projectIndex].collaboratorsEntrepriseNumber] = entrepriseName; // add the new entreprise at the end\n    \tprojects[projectIndex].collaboratorsEntreprise = newCollaborators;\n    \tprojects[projectIndex].collaboratorsEntrepriseNumber++;\n    }\n    return true;    \n  }\n\n\n  // search if an entreprise name is among the entreprises collaborators of a project\n  function isCollaboratorEntreprise(uint projectIndex, string memory entrepriseName) private view returns (bool){\n    for(uint i = 0; i < projects[projectIndex].collaboratorsEntrepriseNumber; i++){\n      if (stringsEquals(projects[projectIndex].collaboratorsEntreprise[i], entrepriseName)){\n        return true;\n      }\n    }\n    return false;\n  }\n\n\n  // ------------------- Bounty functions ---------------------------\n\n  // returns the number of bounties for a project\n  function bountiesLength(string memory projectName) public view returns (uint) {\n    bool exist;\n    uint projectIndex;\n    (exist,projectIndex) = getProjectIndex(projectName);\n    require(exist);  // error if the projectName doesn't exist\n    \n    return bountiesNumber[projectIndex];    \n  }\n\n  // returns the selected bounty of the selected project\n  function bounty(uint bountyId, string memory projectName) public view returns (Bounty memory) {\n    bool exist;\n    uint projectIndex;\n    (exist,projectIndex) = getProjectIndex(projectName);\n    require(exist);  // error if the projectName doesn't exist\n    require(bountyId < bountiesNumber[projectIndex]); // error if selecting a bountyId not in the list\n    \n    return bounties[projectIndex][bountyId];\n  }\n\n  // create a bounty with the description of the bug and the reward \n  function createBounty(string memory projectName, string memory description, uint reward) public returns (bool) {\n    bool exist;\n    uint projectIndex;\n    (exist,projectIndex) = getProjectIndex(projectName);\n    require(exist);  // error if the projectName doesn't exist\n    require(projects[projectIndex].balance >= reward); // error if the project doesn't have enough funds to pay the bounty reward\n    require(msg.sender == projects[projectIndex].creatorUser); // error if the function isn't called by the creator of the project\n    \n    uint bountyCount = bountiesNumber[projectIndex];\n    bounties[projectIndex][bountyCount] = Bounty(description, reward, \"\", true);\n    bountiesNumber[projectIndex]++;\n    return true;\n  }\n\n  // solve a bounty by giving the correction and receive the reward\n  function solveBounty(string memory projectName, uint bountyId, string memory correction) public returns (bool) {\n    bool exist;\n    uint projectIndex;\n    (exist,projectIndex) = getProjectIndex(projectName);\n    require(exist);  // error if the projectName doesn't exist\n    require(projects[projectIndex].balance >= bounties[projectIndex][bountyId].reward); // error if the project doesn't have enough funds to pay the bounty reward\n    require(bounties[projectIndex][bountyId].available); // error if the bounty has already been solved\n    \n    bounties[projectIndex][bountyId].solution = correction;\n    bounties[projectIndex][bountyId].available = false;\n    projects[projectIndex].balance -= bounties[projectIndex][bountyId].reward;\n    users[msg.sender].balance += bounties[projectIndex][bountyId].reward;\n          \n    return true;\n  }\n}\n",
  "sourcePath": "/home/tr/documents/git/daar_build-collective/build-collective-master/contracts/BuildCollective.sol",
  "compiler": {
    "name": "solc",
    "version": "0.5.16+commit.9c3226ce.Emscripten.clang"
  },
  "schemaVersion": "3.4.3",
  "updatedAt": "2021-11-28T19:18:01.145Z",
  "networkType": "ethereum",
  "devdoc": {
    "methods": {}
  },
  "userdoc": {
    "methods": {}
  }
}