{
  "contractName": "BuildCollective",
  "abi": [
    {
      "anonymous": false,
      "inputs": [
        {
          "indexed": true,
          "internalType": "uint256",
          "name": "projectIndex",
          "type": "uint256"
        },
        {
          "components": [
            {
              "internalType": "string",
              "name": "projectName",
              "type": "string"
            },
            {
              "internalType": "address",
              "name": "creatorUser",
              "type": "address"
            },
            {
              "internalType": "uint256",
              "name": "balance",
              "type": "uint256"
            },
            {
              "internalType": "bool",
              "name": "registered",
              "type": "bool"
            },
            {
              "internalType": "address[]",
              "name": "collaborators",
              "type": "address[]"
            }
          ],
          "indexed": true,
          "internalType": "struct BuildCollective.Project",
          "name": "project",
          "type": "tuple"
        }
      ],
      "name": "ProjectCreated",
      "type": "event"
    },
    {
      "anonymous": false,
      "inputs": [
        {
          "indexed": true,
          "internalType": "address",
          "name": "userAddress",
          "type": "address"
        },
        {
          "components": [
            {
              "internalType": "string",
              "name": "username",
              "type": "string"
            },
            {
              "internalType": "uint256",
              "name": "balance",
              "type": "uint256"
            },
            {
              "internalType": "bool",
              "name": "registered",
              "type": "bool"
            }
          ],
          "indexed": true,
          "internalType": "struct BuildCollective.User",
          "name": "user",
          "type": "tuple"
        }
      ],
      "name": "UserSignedUp",
      "type": "event"
    },
    {
      "constant": true,
      "inputs": [],
      "name": "owner",
      "outputs": [
        {
          "internalType": "address",
          "name": "",
          "type": "address"
        }
      ],
      "payable": false,
      "stateMutability": "view",
      "type": "function"
    },
    {
      "constant": true,
      "inputs": [
        {
          "internalType": "address",
          "name": "userAddress",
          "type": "address"
        }
      ],
      "name": "user",
      "outputs": [
        {
          "components": [
            {
              "internalType": "string",
              "name": "username",
              "type": "string"
            },
            {
              "internalType": "uint256",
              "name": "balance",
              "type": "uint256"
            },
            {
              "internalType": "bool",
              "name": "registered",
              "type": "bool"
            }
          ],
          "internalType": "struct BuildCollective.User",
          "name": "",
          "type": "tuple"
        }
      ],
      "payable": false,
      "stateMutability": "view",
      "type": "function"
    },
    {
      "constant": false,
      "inputs": [
        {
          "internalType": "string",
          "name": "username",
          "type": "string"
        }
      ],
      "name": "signUp",
      "outputs": [
        {
          "components": [
            {
              "internalType": "string",
              "name": "username",
              "type": "string"
            },
            {
              "internalType": "uint256",
              "name": "balance",
              "type": "uint256"
            },
            {
              "internalType": "bool",
              "name": "registered",
              "type": "bool"
            }
          ],
          "internalType": "struct BuildCollective.User",
          "name": "",
          "type": "tuple"
        }
      ],
      "payable": false,
      "stateMutability": "nonpayable",
      "type": "function"
    },
    {
      "constant": false,
      "inputs": [
        {
          "internalType": "uint256",
          "name": "amount",
          "type": "uint256"
        }
      ],
      "name": "addBalance",
      "outputs": [
        {
          "internalType": "bool",
          "name": "",
          "type": "bool"
        }
      ],
      "payable": false,
      "stateMutability": "nonpayable",
      "type": "function"
    },
    {
      "constant": true,
      "inputs": [],
      "name": "projectsLength",
      "outputs": [
        {
          "internalType": "uint256",
          "name": "",
          "type": "uint256"
        }
      ],
      "payable": false,
      "stateMutability": "view",
      "type": "function"
    },
    {
      "constant": true,
      "inputs": [
        {
          "internalType": "uint256",
          "name": "projectIndex",
          "type": "uint256"
        }
      ],
      "name": "project",
      "outputs": [
        {
          "components": [
            {
              "internalType": "string",
              "name": "projectName",
              "type": "string"
            },
            {
              "internalType": "address",
              "name": "creatorUser",
              "type": "address"
            },
            {
              "internalType": "uint256",
              "name": "balance",
              "type": "uint256"
            },
            {
              "internalType": "bool",
              "name": "registered",
              "type": "bool"
            },
            {
              "internalType": "address[]",
              "name": "collaborators",
              "type": "address[]"
            }
          ],
          "internalType": "struct BuildCollective.Project",
          "name": "",
          "type": "tuple"
        }
      ],
      "payable": false,
      "stateMutability": "view",
      "type": "function"
    },
    {
      "constant": false,
      "inputs": [
        {
          "internalType": "string",
          "name": "projectName",
          "type": "string"
        }
      ],
      "name": "createProject",
      "outputs": [
        {
          "components": [
            {
              "internalType": "string",
              "name": "projectName",
              "type": "string"
            },
            {
              "internalType": "address",
              "name": "creatorUser",
              "type": "address"
            },
            {
              "internalType": "uint256",
              "name": "balance",
              "type": "uint256"
            },
            {
              "internalType": "bool",
              "name": "registered",
              "type": "bool"
            },
            {
              "internalType": "address[]",
              "name": "collaborators",
              "type": "address[]"
            }
          ],
          "internalType": "struct BuildCollective.Project",
          "name": "",
          "type": "tuple"
        }
      ],
      "payable": false,
      "stateMutability": "nonpayable",
      "type": "function"
    },
    {
      "constant": false,
      "inputs": [
        {
          "internalType": "uint256",
          "name": "amount",
          "type": "uint256"
        },
        {
          "internalType": "string",
          "name": "projectName",
          "type": "string"
        },
        {
          "internalType": "address",
          "name": "addr",
          "type": "address"
        }
      ],
      "name": "addBalanceToProject",
      "outputs": [
        {
          "internalType": "bool",
          "name": "",
          "type": "bool"
        }
      ],
      "payable": false,
      "stateMutability": "nonpayable",
      "type": "function"
    }
  ],
  "bytecode": "0x6080604052336000806101000a81548173ffffffffffffffffffffffffffffffffffffffff021916908373ffffffffffffffffffffffffffffffffffffffff16021790555034801561005057600080fd5b506117ed806100606000396000f3fe608060405234801561001057600080fd5b50600436106100885760003560e01c806381e7e20e1161005b57806381e7e20e1461013b5780638da5cb5b1461016b578063adcfb4fc14610189578063d91921ed146101b957610088565b806311d5aaa71461008d57806315ee4df1146100bd5780634d0c0989146100ed5780636c665ca01461011d575b600080fd5b6100a760048036036100a29190810190610f96565b6101e9565b6040516100b491906114d7565b60405180910390f35b6100d760048036036100d29190810190610f55565b6103c1565b6040516100e491906114d7565b60405180910390f35b61010760048036036101029190810190610fbf565b6105e8565b60405161011491906114bc565b60405180910390f35b6101256106f3565b604051610132919061151b565b60405180910390f35b61015560048036036101509190810190610f2c565b6106fd565b60405161016291906114f9565b60405180910390f35b61017361081d565b60405161018091906114a1565b60405180910390f35b6101a3600480360361019e9190810190610f55565b610842565b6040516101b091906114f9565b60405180910390f35b6101d360048036036101ce9190810190610f96565b61099c565b6040516101e091906114bc565b60405180910390f35b6101f1610cd2565b600260008381526020019081526020016000206040518060a0016040529081600082018054600181600116156101000203166002900480601f0160208091040260200160405190810160405280929190818152602001828054600181600116156101000203166002900480156102a85780601f1061027d576101008083540402835291602001916102a8565b820191906000526020600020905b81548152906001019060200180831161028b57829003601f168201915b505050505081526020016001820160009054906101000a900473ffffffffffffffffffffffffffffffffffffffff1673ffffffffffffffffffffffffffffffffffffffff1673ffffffffffffffffffffffffffffffffffffffff168152602001600282015481526020016003820160009054906101000a900460ff16151515158152602001600482018054806020026020016040519081016040528092919081815260200182805480156103b157602002820191906000526020600020905b8160009054906101000a900473ffffffffffffffffffffffffffffffffffffffff1673ffffffffffffffffffffffffffffffffffffffff1681526020019060010190808311610367575b5050505050815250509050919050565b6103c9610cd2565b60008251116103d757600080fd5b6040518060a001604052808381526020013373ffffffffffffffffffffffffffffffffffffffff1681526020016000815260200160011515815260200160056040519080825280602002602001820160405280156104445781602001602082028038833980820191505090505b508152506002600060035481526020019081526020016000206000820151816000019080519060200190610479929190610d19565b5060208201518160010160006101000a81548173ffffffffffffffffffffffffffffffffffffffff021916908373ffffffffffffffffffffffffffffffffffffffff1602179055506040820151816002015560608201518160030160006101000a81548160ff0219169083151502179055506080820151816004019080519060200190610507929190610d99565b509050503360026000600354815260200190815260200160002060040160008154811061053057fe5b9060005260206000200160006101000a81548173ffffffffffffffffffffffffffffffffffffffff021916908373ffffffffffffffffffffffffffffffffffffffff16021790555060026000600354815260200190815260200160002060405161059a9190611473565b60405180910390206003547ffa6fe5ca59b8f74037d079c2173b9ff1e3fd6a987b01f1832b7b4c124c1ca8f260405160405180910390a3600360008154809291906001019190505550919050565b600083600160008473ffffffffffffffffffffffffffffffffffffffff1673ffffffffffffffffffffffffffffffffffffffff16815260200190815260200160002060010154101561063957600080fd5b60008061064585610a50565b809250819350505081156106e55761065d8185610b4b565b61066657600080fd5b85600260008381526020019081526020016000206002016000828254019250508190555085600160008673ffffffffffffffffffffffffffffffffffffffff1673ffffffffffffffffffffffffffffffffffffffff168152602001908152602001600020600101600082825403925050819055506001925050506106ec565b6000925050505b9392505050565b6000600354905090565b610705610e23565b600160008373ffffffffffffffffffffffffffffffffffffffff1673ffffffffffffffffffffffffffffffffffffffff168152602001908152602001600020604051806060016040529081600082018054600181600116156101000203166002900480601f0160208091040260200160405190810160405280929190818152602001828054600181600116156101000203166002900480156107e85780601f106107bd576101008083540402835291602001916107e8565b820191906000526020600020905b8154815290600101906020018083116107cb57829003601f168201915b50505050508152602001600182015481526020016002820160009054906101000a900460ff1615151515815250509050919050565b6000809054906101000a900473ffffffffffffffffffffffffffffffffffffffff1681565b61084a610e23565b600082511161085857600080fd5b60405180606001604052808381526020016000815260200160011515815250600160003373ffffffffffffffffffffffffffffffffffffffff1673ffffffffffffffffffffffffffffffffffffffff16815260200190815260200160002060008201518160000190805190602001906108d2929190610d19565b506020820151816001015560408201518160020160006101000a81548160ff021916908315150217905550905050600160003373ffffffffffffffffffffffffffffffffffffffff1673ffffffffffffffffffffffffffffffffffffffff16815260200190815260200160002060405161094c919061148a565b60405180910390203373ffffffffffffffffffffffffffffffffffffffff167fc24de5261f8eff14607134de76bea692f6b10ab7b8b21d627fa4cd6347365b7460405160405180910390a3919050565b6000600160003373ffffffffffffffffffffffffffffffffffffffff1673ffffffffffffffffffffffffffffffffffffffff16815260200190815260200160002060020160009054906101000a900460ff166109f757600080fd5b81600160003373ffffffffffffffffffffffffffffffffffffffff1673ffffffffffffffffffffffffffffffffffffffff1681526020019081526020016000206001016000828254019250508190555060019050919050565b60008060008090505b600354811015610b3a57610b1b600260008381526020019081526020016000206000018054600181600116156101000203166002900480601f016020809104026020016040519081016040528092919081815260200182805460018160011615610100020316600290048015610b105780601f10610ae557610100808354040283529160200191610b10565b820191906000526020600020905b815481529060010190602001808311610af357829003601f168201915b505050505085610bfe565b15610b2d576001819250925050610b46565b8080600101915050610a59565b50600080809050915091505b915091565b600080600090505b6005811015610bf2578273ffffffffffffffffffffffffffffffffffffffff16600260008681526020019081526020016000206004018281548110610b9457fe5b9060005260206000200160009054906101000a900473ffffffffffffffffffffffffffffffffffffffff1673ffffffffffffffffffffffffffffffffffffffff161415610be5576001915050610bf8565b8080600101915050610b53565b50600090505b92915050565b60006060839050606083905060008251905081518114610c245760009350505050610ccc565b60008090505b81811015610cc357828181518110610c3e57fe5b602001015160f81c60f81b7effffffffffffffffffffffffffffffffffffffffffffffffffffffffffffff1916848281518110610c7757fe5b602001015160f81c60f81b7effffffffffffffffffffffffffffffffffffffffffffffffffffffffffffff191614610cb6576000945050505050610ccc565b8080600101915050610c2a565b50600193505050505b92915050565b6040518060a0016040528060608152602001600073ffffffffffffffffffffffffffffffffffffffff16815260200160008152602001600015158152602001606081525090565b828054600181600116156101000203166002900490600052602060002090601f016020900481019282601f10610d5a57805160ff1916838001178555610d88565b82800160010185558215610d88579182015b82811115610d87578251825591602001919060010190610d6c565b5b509050610d959190610e46565b5090565b828054828255906000526020600020908101928215610e12579160200282015b82811115610e115782518260006101000a81548173ffffffffffffffffffffffffffffffffffffffff021916908373ffffffffffffffffffffffffffffffffffffffff16021790555091602001919060010190610db9565b5b509050610e1f9190610e6b565b5090565b604051806060016040528060608152602001600081526020016000151581525090565b610e6891905b80821115610e64576000816000905550600101610e4c565b5090565b90565b610eab91905b80821115610ea757600081816101000a81549073ffffffffffffffffffffffffffffffffffffffff021916905550600101610e71565b5090565b90565b600081359050610ebd8161177c565b92915050565b600082601f830112610ed457600080fd5b8135610ee7610ee282611563565b611536565b91508082526020830160208301858383011115610f0357600080fd5b610f0e8382846116bb565b50505092915050565b600081359050610f2681611793565b92915050565b600060208284031215610f3e57600080fd5b6000610f4c84828501610eae565b91505092915050565b600060208284031215610f6757600080fd5b600082013567ffffffffffffffff811115610f8157600080fd5b610f8d84828501610ec3565b91505092915050565b600060208284031215610fa857600080fd5b6000610fb684828501610f17565b91505092915050565b600080600060608486031215610fd457600080fd5b6000610fe286828701610f17565b935050602084013567ffffffffffffffff811115610fff57600080fd5b61100b86828701610ec3565b925050604061101c86828701610eae565b9150509250925092565b600061103283836110ae565b60208301905092915050565b600061104a83836110cc565b60208301905092915050565b60006110628383611139565b905092915050565b600061107683836111bc565b60208301905092915050565b600061108e8383611204565b905092915050565b60006110a28383611464565b60208301905092915050565b6110b781611673565b82525050565b6110c681611673565b82525050565b6110d581611673565b82525050565b60006110e6826115c9565b6110f08185611604565b93506110fb8361158f565b8060005b8381101561112c5781516111138882611026565b975061111e836115ea565b9250506001810190506110ff565b5085935050505092915050565b6000611144826115d4565b61114e8185611615565b93506111598361159f565b8060005b838110156111915761116e8261174b565b611178888261103e565b9750611183836115f7565b92505060018101905061115d565b5085935050505092915050565b6111a781611685565b82525050565b6111b681611685565b82525050565b6111c581611685565b82525050565b60006111d6826115df565b6111e08185611620565b93506111f08185602086016116ca565b6111f98161175e565b840191505092915050565b60008154600181166000811461122157600181146112475761128b565b607f60028304166112328187611631565b955060ff19831686526020860193505061128b565b600282046112558187611631565b9550611260856115b4565b60005b8281101561128257815481890152600182019150602081019050611263565b80880195505050505b505092915050565b600060a08301600083015184820360008601526112b082826111cb565b91505060208301516112c560208601826110ae565b5060408301516112d86040860182611446565b5060608301516112eb606086018261119e565b506080830151848203608086015261130382826110db565b9150508091505092915050565b600080830160008084016113248682611082565b95505060018401549050611337816116fd565b611341868261103e565b9550506002840154905061135481611731565b61135e8682611096565b9550506003840154905061137181611717565b61137b868261106a565b9550506004840161138c8682611056565b955050849250505092915050565b600060608301600083015184820360008601526113b782826111cb565b91505060208301516113cc6020860182611446565b5060408301516113df604086018261119e565b508091505092915050565b600080830160008084016113fe8682611082565b9550506001840154905061141181611731565b61141b8682611096565b9550506002840154905061142e81611717565b611438868261106a565b955050849250505092915050565b61144f816116b1565b82525050565b61145e816116b1565b82525050565b61146d816116b1565b82525050565b600061147f8284611310565b915081905092915050565b600061149682846113ea565b915081905092915050565b60006020820190506114b660008301846110bd565b92915050565b60006020820190506114d160008301846111ad565b92915050565b600060208201905081810360008301526114f18184611293565b905092915050565b60006020820190508181036000830152611513818461139a565b905092915050565b60006020820190506115306000830184611455565b92915050565b6000604051905081810181811067ffffffffffffffff8211171561155957600080fd5b8060405250919050565b600067ffffffffffffffff82111561157a57600080fd5b601f19601f8301169050602081019050919050565b6000819050602082019050919050565b60008190508160005260206000209050919050565b60008190508160005260206000209050919050565b600081519050919050565b600081549050919050565b600081519050919050565b6000602082019050919050565b6000600182019050919050565b600082825260208201905092915050565b600081905092915050565b600082825260208201905092915050565b600081905092915050565b600073ffffffffffffffffffffffffffffffffffffffff82169050919050565b600060ff82169050919050565b6000819050919050565b600061167e82611691565b9050919050565b60008115159050919050565b600073ffffffffffffffffffffffffffffffffffffffff82169050919050565b6000819050919050565b82818337600083830152505050565b60005b838110156116e85780820151818401526020810190506116cd565b838111156116f7576000848401525b50505050565b600061171061170b8361176f565b61163c565b9050919050565b600061172a6117258361176f565b61165c565b9050919050565b600061174461173f8361176f565b611669565b9050919050565b600061175782546116fd565b9050919050565b6000601f19601f8301169050919050565b60008160001c9050919050565b61178581611673565b811461179057600080fd5b50565b61179c816116b1565b81146117a757600080fd5b5056fea365627a7a72315820683237ba5efb30eaa3a9e7474afd6f4ae89b1645373888e48ca0a175f416cb7b6c6578706572696d656e74616cf564736f6c63430005100040",
  "source": "pragma solidity >=0.4.22 <0.9.0;\npragma experimental ABIEncoderV2;\n\nimport \"./Ownable.sol\";\n\ncontract BuildCollective is Ownable {\n  struct User {\n    string username;\n    uint256 balance;\n    bool registered;\n  }\n\n  struct Project {\n    string projectName;\n    address creatorUser;\n    uint256 balance;\n    bool registered;\n    address[] collaborators;\n  }\n\n  mapping(address => User) private users;\n  mapping(uint => Project) private projects;\n  uint private projectCount;\n\n  event UserSignedUp(address indexed userAddress, User indexed user);\n  event ProjectCreated(uint indexed projectIndex, Project indexed project);\n\n  function user(address userAddress) public view returns (User memory) {\n    return users[userAddress];\n  }\n\n  function signUp(string memory username) public returns (User memory) {\n    require(bytes(username).length > 0);\n    users[msg.sender] = User(username, 0, true);\n    emit UserSignedUp(msg.sender, users[msg.sender]);\n  }\n\n  function addBalance(uint256 amount) public returns (bool) {\n    require(users[msg.sender].registered);\n    users[msg.sender].balance += amount;\n    return true;\n  }\n\n  function projectsLength() public view returns (uint) {\n    return projectCount;\n  }\n\n  function project(uint projectIndex) public view returns (Project memory) {\n    return projects[projectIndex];\n  }\n\n  function createProject(string memory projectName) public returns (Project memory) {\n    require(bytes(projectName).length > 0);\n    projects[projectCount] = Project(projectName, msg.sender, 0, true, new address[](5));\n    projects[projectCount].collaborators[0] = msg.sender;\n    emit ProjectCreated(projectCount, projects[projectCount]);\n    projectCount++;\n  }\n\n  function addBalanceToProject(uint256 amount, string memory projectName, address addr) public returns (bool) {\n    require(users[addr].balance >= amount);\n    bool exist;\n    uint projectIndex;\n    (exist,projectIndex) = getProjectIndex(projectName);\n    if(exist) {\n      require(isCollaborator(projectIndex, addr));\n      projects[projectIndex].balance += amount;\n      users[addr].balance -= amount;\n      return true;\n    }\n    return false;\n  }\n\n  function getProjectIndex(string memory projectName) private returns (bool,uint){\n    for(uint i = 0; i < projectCount; i++){\n      if (stringsEquals(projects[i].projectName, projectName)){\n        return (true,i);\n      }\n    }\n    return (false,0);\n  }\n\n  function isCollaborator(uint projectIndex, address addr) private returns (bool){\n    for(uint i = 0; i < 5; i++){\n      if (projects[projectIndex].collaborators[i] == addr){\n        return true;\n      }\n    }\n    return false;\n  }\n\n  function stringsEquals(string memory s1, string memory s2) private pure returns (bool) {\n    bytes memory b1 = bytes(s1);\n    bytes memory b2 = bytes(s2);\n    uint256 l1 = b1.length;\n    if (l1 != b2.length) return false;\n    for (uint256 i=0; i<l1; i++) {\n        if (b1[i] != b2[i]) return false;\n    }\n    return true;\n}\n\n}\n",
  "sourcePath": "/home/tr/documents/git/daar_build-collective/build-collective-master/contracts/BuildCollective.sol",
  "compiler": {
    "name": "solc",
    "version": "0.5.16+commit.9c3226ce.Emscripten.clang"
  },
  "schemaVersion": "3.4.3",
  "updatedAt": "2021-11-27T23:10:31.250Z",
  "networkType": "ethereum",
  "devdoc": {
    "methods": {}
  },
  "userdoc": {
    "methods": {}
  }
}